{
	"contracts/CdAccount.sol": {
		"Savings": {
			"abi": [
				{
					"inputs": [],
					"stateMutability": "nonpayable",
					"type": "constructor"
				},
				{
					"inputs": [
						{
							"internalType": "address payable",
							"name": "walletAdress",
							"type": "address"
						},
						{
							"internalType": "string",
							"name": "firstName",
							"type": "string"
						},
						{
							"internalType": "string",
							"name": "lastName",
							"type": "string"
						},
						{
							"internalType": "uint256",
							"name": "releaseTime",
							"type": "uint256"
						},
						{
							"internalType": "uint256",
							"name": "amount",
							"type": "uint256"
						},
						{
							"internalType": "bool",
							"name": "canWithdraw",
							"type": "bool"
						}
					],
					"name": "addBenificiary",
					"outputs": [],
					"stateMutability": "nonpayable",
					"type": "function"
				},
				{
					"inputs": [
						{
							"internalType": "address",
							"name": "walletAdress",
							"type": "address"
						}
					],
					"name": "availableToWithdraw",
					"outputs": [
						{
							"internalType": "bool",
							"name": "",
							"type": "bool"
						}
					],
					"stateMutability": "nonpayable",
					"type": "function"
				},
				{
					"inputs": [],
					"name": "balanceOf",
					"outputs": [
						{
							"internalType": "uint256",
							"name": "",
							"type": "uint256"
						}
					],
					"stateMutability": "view",
					"type": "function"
				},
				{
					"inputs": [
						{
							"internalType": "uint256",
							"name": "",
							"type": "uint256"
						}
					],
					"name": "benificiaries",
					"outputs": [
						{
							"internalType": "address payable",
							"name": "walletAdress",
							"type": "address"
						},
						{
							"internalType": "string",
							"name": "firstName",
							"type": "string"
						},
						{
							"internalType": "string",
							"name": "lastName",
							"type": "string"
						},
						{
							"internalType": "uint256",
							"name": "releaseTime",
							"type": "uint256"
						},
						{
							"internalType": "uint256",
							"name": "amount",
							"type": "uint256"
						},
						{
							"internalType": "bool",
							"name": "canWithdraw",
							"type": "bool"
						}
					],
					"stateMutability": "view",
					"type": "function"
				},
				{
					"inputs": [
						{
							"internalType": "address",
							"name": "walletAdress",
							"type": "address"
						}
					],
					"name": "deposit",
					"outputs": [],
					"stateMutability": "payable",
					"type": "function"
				},
				{
					"inputs": [
						{
							"internalType": "address payable",
							"name": "walletAdress",
							"type": "address"
						}
					],
					"name": "withdraw",
					"outputs": [],
					"stateMutability": "payable",
					"type": "function"
				}
			],
			"devdoc": {
				"kind": "dev",
				"methods": {},
				"version": 1
			},
			"evm": {
				"assembly": "    /* \"contracts/CdAccount.sol\":66:2784  contract Savings {\r... */\n  mstore(0x40, 0x80)\n    /* \"contracts/CdAccount.sol\":137:188  constructor() {\r... */\n  callvalue\n  dup1\n  iszero\n  tag_1\n  jumpi\n  0x00\n  dup1\n  revert\ntag_1:\n  pop\n    /* \"contracts/CdAccount.sol\":170:180  msg.sender */\n  caller\n    /* \"contracts/CdAccount.sol\":162:167  owner */\n  0x00\n  dup1\n    /* \"contracts/CdAccount.sol\":162:180  owner = msg.sender */\n  0x0100\n  exp\n  dup2\n  sload\n  dup2\n  0xffffffffffffffffffffffffffffffffffffffff\n  mul\n  not\n  and\n  swap1\n  dup4\n  0xffffffffffffffffffffffffffffffffffffffff\n  and\n  mul\n  or\n  swap1\n  sstore\n  pop\n    /* \"contracts/CdAccount.sol\":66:2784  contract Savings {\r... */\n  dataSize(sub_0)\n  dup1\n  dataOffset(sub_0)\n  0x00\n  codecopy\n  0x00\n  return\nstop\n\nsub_0: assembly {\n        /* \"contracts/CdAccount.sol\":66:2784  contract Savings {\r... */\n      mstore(0x40, 0x80)\n      jumpi(tag_1, lt(calldatasize, 0x04))\n      shr(0xe0, calldataload(0x00))\n      dup1\n      0x303edf18\n      eq\n      tag_2\n      jumpi\n      dup1\n      0x51cff8d9\n      eq\n      tag_3\n      jumpi\n      dup1\n      0x5fded477\n      eq\n      tag_4\n      jumpi\n      dup1\n      0x722713f7\n      eq\n      tag_5\n      jumpi\n      dup1\n      0xa25db8ce\n      eq\n      tag_6\n      jumpi\n      dup1\n      0xf340fa01\n      eq\n      tag_7\n      jumpi\n    tag_1:\n      0x00\n      dup1\n      revert\n        /* \"contracts/CdAccount.sol\":527:982  function addBenificiary(address payable walletAdress, string memory firstName, string memory lastName, uint releaseTime, uint amount, bool canWithdraw) public {\r... */\n    tag_2:\n      callvalue\n      dup1\n      iszero\n      tag_8\n      jumpi\n      0x00\n      dup1\n      revert\n    tag_8:\n      pop\n      tag_9\n      0x04\n      dup1\n      calldatasize\n      sub\n      dup2\n      add\n      swap1\n      tag_10\n      swap2\n      swap1\n      tag_11\n      jump\t// in\n    tag_10:\n      tag_12\n      jump\t// in\n    tag_9:\n      stop\n        /* \"contracts/CdAccount.sol\":2396:2781  function withdraw(address payable walletAdress) payable public {\r... */\n    tag_3:\n      tag_13\n      0x04\n      dup1\n      calldatasize\n      sub\n      dup2\n      add\n      swap1\n      tag_14\n      swap2\n      swap1\n      tag_15\n      jump\t// in\n    tag_14:\n      tag_16\n      jump\t// in\n    tag_13:\n      stop\n        /* \"contracts/CdAccount.sol\":436:470  Benificiary[] public benificiaries */\n    tag_4:\n      callvalue\n      dup1\n      iszero\n      tag_17\n      jumpi\n      0x00\n      dup1\n      revert\n    tag_17:\n      pop\n      tag_18\n      0x04\n      dup1\n      calldatasize\n      sub\n      dup2\n      add\n      swap1\n      tag_19\n      swap2\n      swap1\n      tag_20\n      jump\t// in\n    tag_19:\n      tag_21\n      jump\t// in\n    tag_18:\n      mload(0x40)\n      tag_22\n      swap7\n      swap6\n      swap5\n      swap4\n      swap3\n      swap2\n      swap1\n      tag_23\n      jump\t// in\n    tag_22:\n      mload(0x40)\n      dup1\n      swap2\n      sub\n      swap1\n      return\n        /* \"contracts/CdAccount.sol\":1024:1120  function balanceOf() public view returns(uint) {\r... */\n    tag_5:\n      callvalue\n      dup1\n      iszero\n      tag_24\n      jumpi\n      0x00\n      dup1\n      revert\n    tag_24:\n      pop\n      tag_25\n      tag_26\n      jump\t// in\n    tag_25:\n      mload(0x40)\n      tag_27\n      swap2\n      swap1\n      tag_28\n      jump\t// in\n    tag_27:\n      mload(0x40)\n      dup1\n      swap2\n      sub\n      swap1\n      return\n        /* \"contracts/CdAccount.sol\":1941:2351  function availableToWithdraw(address walletAdress) public returns(bool) {\r... */\n    tag_6:\n      callvalue\n      dup1\n      iszero\n      tag_29\n      jumpi\n      0x00\n      dup1\n      revert\n    tag_29:\n      pop\n      tag_30\n      0x04\n      dup1\n      calldatasize\n      sub\n      dup2\n      add\n      swap1\n      tag_31\n      swap2\n      swap1\n      tag_32\n      jump\t// in\n    tag_31:\n      tag_33\n      jump\t// in\n    tag_30:\n      mload(0x40)\n      tag_34\n      swap2\n      swap1\n      tag_35\n      jump\t// in\n    tag_34:\n      mload(0x40)\n      dup1\n      swap2\n      sub\n      swap1\n      return\n        /* \"contracts/CdAccount.sol\":1200:1310  function deposit(address walletAdress) payable public {\r... */\n    tag_7:\n      tag_36\n      0x04\n      dup1\n      calldatasize\n      sub\n      dup2\n      add\n      swap1\n      tag_37\n      swap2\n      swap1\n      tag_32\n      jump\t// in\n    tag_37:\n      tag_38\n      jump\t// in\n    tag_36:\n      stop\n        /* \"contracts/CdAccount.sol\":527:982  function addBenificiary(address payable walletAdress, string memory firstName, string memory lastName, uint releaseTime, uint amount, bool canWithdraw) public {\r... */\n    tag_12:\n        /* \"contracts/CdAccount.sol\":720:725  owner */\n      0x00\n      dup1\n      sload\n      swap1\n      0x0100\n      exp\n      swap1\n      div\n      0xffffffffffffffffffffffffffffffffffffffff\n      and\n        /* \"contracts/CdAccount.sol\":706:725  msg.sender == owner */\n      0xffffffffffffffffffffffffffffffffffffffff\n      and\n        /* \"contracts/CdAccount.sol\":706:716  msg.sender */\n      caller\n        /* \"contracts/CdAccount.sol\":706:725  msg.sender == owner */\n      0xffffffffffffffffffffffffffffffffffffffff\n      and\n      eq\n        /* \"contracts/CdAccount.sol\":698:765  require(msg.sender == owner, \"only the owner can add benificiries\") */\n      tag_40\n      jumpi\n      mload(0x40)\n      0x08c379a000000000000000000000000000000000000000000000000000000000\n      dup2\n      mstore\n      0x04\n      add\n      tag_41\n      swap1\n      tag_42\n      jump\t// in\n    tag_41:\n      mload(0x40)\n      dup1\n      swap2\n      sub\n      swap1\n      revert\n    tag_40:\n        /* \"contracts/CdAccount.sol\":777:790  benificiaries */\n      0x01\n        /* \"contracts/CdAccount.sol\":796:972  Benificiary(\r... */\n      mload(0x40)\n      dup1\n      0xc0\n      add\n      0x40\n      mstore\n      dup1\n        /* \"contracts/CdAccount.sol\":823:835  walletAdress */\n      dup9\n        /* \"contracts/CdAccount.sol\":796:972  Benificiary(\r... */\n      0xffffffffffffffffffffffffffffffffffffffff\n      and\n      dup2\n      mstore\n      0x20\n      add\n        /* \"contracts/CdAccount.sol\":851:860  firstName */\n      dup8\n        /* \"contracts/CdAccount.sol\":796:972  Benificiary(\r... */\n      dup2\n      mstore\n      0x20\n      add\n        /* \"contracts/CdAccount.sol\":876:884  lastName */\n      dup7\n        /* \"contracts/CdAccount.sol\":796:972  Benificiary(\r... */\n      dup2\n      mstore\n      0x20\n      add\n        /* \"contracts/CdAccount.sol\":900:911  releaseTime */\n      dup6\n        /* \"contracts/CdAccount.sol\":796:972  Benificiary(\r... */\n      dup2\n      mstore\n      0x20\n      add\n        /* \"contracts/CdAccount.sol\":927:933  amount */\n      dup5\n        /* \"contracts/CdAccount.sol\":796:972  Benificiary(\r... */\n      dup2\n      mstore\n      0x20\n      add\n        /* \"contracts/CdAccount.sol\":949:960  canWithdraw */\n      dup4\n        /* \"contracts/CdAccount.sol\":796:972  Benificiary(\r... */\n      iszero\n      iszero\n      dup2\n      mstore\n      pop\n        /* \"contracts/CdAccount.sol\":777:973  benificiaries.push(Benificiary(\r... */\n      swap1\n      dup1\n      0x01\n      dup2\n      sload\n      add\n      dup1\n      dup3\n      sstore\n      dup1\n      swap2\n      pop\n      pop\n      0x01\n      swap1\n      sub\n      swap1\n      0x00\n      mstore\n      keccak256(0x00, 0x20)\n      swap1\n      0x06\n      mul\n      add\n      0x00\n      swap1\n      swap2\n      swap1\n      swap2\n      swap1\n      swap2\n      pop\n      0x00\n      dup3\n      add\n      mload\n      dup2\n      0x00\n      add\n      exp(0x0100, 0x00)\n      dup2\n      sload\n      dup2\n      0xffffffffffffffffffffffffffffffffffffffff\n      mul\n      not\n      and\n      swap1\n      dup4\n      0xffffffffffffffffffffffffffffffffffffffff\n      and\n      mul\n      or\n      swap1\n      sstore\n      pop\n      0x20\n      dup3\n      add\n      mload\n      dup2\n      0x01\n      add\n      swap1\n      dup1\n      mload\n      swap1\n      0x20\n      add\n      swap1\n      tag_44\n      swap3\n      swap2\n      swap1\n      tag_45\n      jump\t// in\n    tag_44:\n      pop\n      0x40\n      dup3\n      add\n      mload\n      dup2\n      0x02\n      add\n      swap1\n      dup1\n      mload\n      swap1\n      0x20\n      add\n      swap1\n      tag_46\n      swap3\n      swap2\n      swap1\n      tag_45\n      jump\t// in\n    tag_46:\n      pop\n      0x60\n      dup3\n      add\n      mload\n      dup2\n      0x03\n      add\n      sstore\n      0x80\n      dup3\n      add\n      mload\n      dup2\n      0x04\n      add\n      sstore\n      0xa0\n      dup3\n      add\n      mload\n      dup2\n      0x05\n      add\n      exp(0x0100, 0x00)\n      dup2\n      sload\n      dup2\n      0xff\n      mul\n      not\n      and\n      swap1\n      dup4\n      iszero\n      iszero\n      mul\n      or\n      swap1\n      sstore\n      pop\n      pop\n      pop\n        /* \"contracts/CdAccount.sol\":527:982  function addBenificiary(address payable walletAdress, string memory firstName, string memory lastName, uint releaseTime, uint amount, bool canWithdraw) public {\r... */\n      pop\n      pop\n      pop\n      pop\n      pop\n      pop\n      jump\t// out\n        /* \"contracts/CdAccount.sol\":2396:2781  function withdraw(address payable walletAdress) payable public {\r... */\n    tag_16:\n        /* \"contracts/CdAccount.sol\":2470:2476  uint i */\n      0x00\n        /* \"contracts/CdAccount.sol\":2479:2501  getIndex(walletAdress) */\n      tag_48\n        /* \"contracts/CdAccount.sol\":2488:2500  walletAdress */\n      dup3\n        /* \"contracts/CdAccount.sol\":2479:2487  getIndex */\n      tag_49\n        /* \"contracts/CdAccount.sol\":2479:2501  getIndex(walletAdress) */\n      jump\t// in\n    tag_48:\n        /* \"contracts/CdAccount.sol\":2470:2501  uint i = getIndex(walletAdress) */\n      swap1\n      pop\n        /* \"contracts/CdAccount.sol\":2534:2547  benificiaries */\n      0x01\n        /* \"contracts/CdAccount.sol\":2548:2549  i */\n      dup2\n        /* \"contracts/CdAccount.sol\":2534:2550  benificiaries[i] */\n      dup2\n      sload\n      dup2\n      lt\n      tag_50\n      jumpi\n      tag_51\n      tag_52\n      jump\t// in\n    tag_51:\n    tag_50:\n      swap1\n      0x00\n      mstore\n      keccak256(0x00, 0x20)\n      swap1\n      0x06\n      mul\n      add\n        /* \"contracts/CdAccount.sol\":2534:2563  benificiaries[i].walletAdress */\n      0x00\n      add\n      0x00\n      swap1\n      sload\n      swap1\n      0x0100\n      exp\n      swap1\n      div\n      0xffffffffffffffffffffffffffffffffffffffff\n      and\n        /* \"contracts/CdAccount.sol\":2520:2563  msg.sender == benificiaries[i].walletAdress */\n      0xffffffffffffffffffffffffffffffffffffffff\n      and\n        /* \"contracts/CdAccount.sol\":2520:2530  msg.sender */\n      caller\n        /* \"contracts/CdAccount.sol\":2520:2563  msg.sender == benificiaries[i].walletAdress */\n      0xffffffffffffffffffffffffffffffffffffffff\n      and\n      eq\n        /* \"contracts/CdAccount.sol\":2512:2607  require(msg.sender == benificiaries[i].walletAdress, \"You must be the benificiary to withdraw\") */\n      tag_54\n      jumpi\n      mload(0x40)\n      0x08c379a000000000000000000000000000000000000000000000000000000000\n      dup2\n      mstore\n      0x04\n      add\n      tag_55\n      swap1\n      tag_56\n      jump\t// in\n    tag_55:\n      mload(0x40)\n      dup1\n      swap2\n      sub\n      swap1\n      revert\n    tag_54:\n        /* \"contracts/CdAccount.sol\":2658:2662  true */\n      0x01\n        /* \"contracts/CdAccount.sol\":2626:2662  benificiaries[i].canWithdraw == true */\n      iszero\n      iszero\n        /* \"contracts/CdAccount.sol\":2626:2639  benificiaries */\n      0x01\n        /* \"contracts/CdAccount.sol\":2640:2641  i */\n      dup3\n        /* \"contracts/CdAccount.sol\":2626:2642  benificiaries[i] */\n      dup2\n      sload\n      dup2\n      lt\n      tag_57\n      jumpi\n      tag_58\n      tag_52\n      jump\t// in\n    tag_58:\n    tag_57:\n      swap1\n      0x00\n      mstore\n      keccak256(0x00, 0x20)\n      swap1\n      0x06\n      mul\n      add\n        /* \"contracts/CdAccount.sol\":2626:2654  benificiaries[i].canWithdraw */\n      0x05\n      add\n      0x00\n      swap1\n      sload\n      swap1\n      0x0100\n      exp\n      swap1\n      div\n      0xff\n      and\n        /* \"contracts/CdAccount.sol\":2626:2662  benificiaries[i].canWithdraw == true */\n      iszero\n      iszero\n      eq\n        /* \"contracts/CdAccount.sol\":2618:2699  require(benificiaries[i].canWithdraw == true, \"you are not able to withdraw yet\") */\n      tag_60\n      jumpi\n      mload(0x40)\n      0x08c379a000000000000000000000000000000000000000000000000000000000\n      dup2\n      mstore\n      0x04\n      add\n      tag_61\n      swap1\n      tag_62\n      jump\t// in\n    tag_61:\n      mload(0x40)\n      dup1\n      swap2\n      sub\n      swap1\n      revert\n    tag_60:\n        /* \"contracts/CdAccount.sol\":2710:2723  benificiaries */\n      0x01\n        /* \"contracts/CdAccount.sol\":2724:2725  i */\n      dup2\n        /* \"contracts/CdAccount.sol\":2710:2726  benificiaries[i] */\n      dup2\n      sload\n      dup2\n      lt\n      tag_63\n      jumpi\n      tag_64\n      tag_52\n      jump\t// in\n    tag_64:\n    tag_63:\n      swap1\n      0x00\n      mstore\n      keccak256(0x00, 0x20)\n      swap1\n      0x06\n      mul\n      add\n        /* \"contracts/CdAccount.sol\":2710:2739  benificiaries[i].walletAdress */\n      0x00\n      add\n      0x00\n      swap1\n      sload\n      swap1\n      0x0100\n      exp\n      swap1\n      div\n      0xffffffffffffffffffffffffffffffffffffffff\n      and\n        /* \"contracts/CdAccount.sol\":2710:2748  benificiaries[i].walletAdress.transfer */\n      0xffffffffffffffffffffffffffffffffffffffff\n      and\n        /* \"contracts/CdAccount.sol\":2710:2773  benificiaries[i].walletAdress.transfer(benificiaries[i].amount) */\n      0x08fc\n        /* \"contracts/CdAccount.sol\":2749:2762  benificiaries */\n      0x01\n        /* \"contracts/CdAccount.sol\":2763:2764  i */\n      dup4\n        /* \"contracts/CdAccount.sol\":2749:2765  benificiaries[i] */\n      dup2\n      sload\n      dup2\n      lt\n      tag_66\n      jumpi\n      tag_67\n      tag_52\n      jump\t// in\n    tag_67:\n    tag_66:\n      swap1\n      0x00\n      mstore\n      keccak256(0x00, 0x20)\n      swap1\n      0x06\n      mul\n      add\n        /* \"contracts/CdAccount.sol\":2749:2772  benificiaries[i].amount */\n      0x04\n      add\n      sload\n        /* \"contracts/CdAccount.sol\":2710:2773  benificiaries[i].walletAdress.transfer(benificiaries[i].amount) */\n      swap1\n      dup2\n      iszero\n      mul\n      swap1\n      mload(0x40)\n      0x00\n      mload(0x40)\n      dup1\n      dup4\n      sub\n      dup2\n      dup6\n      dup9\n      dup9\n      call\n      swap4\n      pop\n      pop\n      pop\n      pop\n      iszero\n      dup1\n      iszero\n      tag_70\n      jumpi\n      returndatasize\n      0x00\n      dup1\n      returndatacopy\n      revert(0x00, returndatasize)\n    tag_70:\n      pop\n        /* \"contracts/CdAccount.sol\":2459:2781  {\r... */\n      pop\n        /* \"contracts/CdAccount.sol\":2396:2781  function withdraw(address payable walletAdress) payable public {\r... */\n      pop\n      jump\t// out\n        /* \"contracts/CdAccount.sol\":436:470  Benificiary[] public benificiaries */\n    tag_21:\n      0x01\n      dup2\n      dup2\n      sload\n      dup2\n      lt\n      tag_71\n      jumpi\n      0x00\n      dup1\n      revert\n    tag_71:\n      swap1\n      0x00\n      mstore\n      keccak256(0x00, 0x20)\n      swap1\n      0x06\n      mul\n      add\n      0x00\n      swap2\n      pop\n      swap1\n      pop\n      dup1\n      0x00\n      add\n      0x00\n      swap1\n      sload\n      swap1\n      0x0100\n      exp\n      swap1\n      div\n      0xffffffffffffffffffffffffffffffffffffffff\n      and\n      swap1\n      dup1\n      0x01\n      add\n      dup1\n      sload\n      tag_73\n      swap1\n      tag_74\n      jump\t// in\n    tag_73:\n      dup1\n      0x1f\n      add\n      0x20\n      dup1\n      swap2\n      div\n      mul\n      0x20\n      add\n      mload(0x40)\n      swap1\n      dup2\n      add\n      0x40\n      mstore\n      dup1\n      swap3\n      swap2\n      swap1\n      dup2\n      dup2\n      mstore\n      0x20\n      add\n      dup3\n      dup1\n      sload\n      tag_75\n      swap1\n      tag_74\n      jump\t// in\n    tag_75:\n      dup1\n      iszero\n      tag_76\n      jumpi\n      dup1\n      0x1f\n      lt\n      tag_77\n      jumpi\n      0x0100\n      dup1\n      dup4\n      sload\n      div\n      mul\n      dup4\n      mstore\n      swap2\n      0x20\n      add\n      swap2\n      jump(tag_76)\n    tag_77:\n      dup3\n      add\n      swap2\n      swap1\n      0x00\n      mstore\n      keccak256(0x00, 0x20)\n      swap1\n    tag_78:\n      dup2\n      sload\n      dup2\n      mstore\n      swap1\n      0x01\n      add\n      swap1\n      0x20\n      add\n      dup1\n      dup4\n      gt\n      tag_78\n      jumpi\n      dup3\n      swap1\n      sub\n      0x1f\n      and\n      dup3\n      add\n      swap2\n    tag_76:\n      pop\n      pop\n      pop\n      pop\n      pop\n      swap1\n      dup1\n      0x02\n      add\n      dup1\n      sload\n      tag_79\n      swap1\n      tag_74\n      jump\t// in\n    tag_79:\n      dup1\n      0x1f\n      add\n      0x20\n      dup1\n      swap2\n      div\n      mul\n      0x20\n      add\n      mload(0x40)\n      swap1\n      dup2\n      add\n      0x40\n      mstore\n      dup1\n      swap3\n      swap2\n      swap1\n      dup2\n      dup2\n      mstore\n      0x20\n      add\n      dup3\n      dup1\n      sload\n      tag_80\n      swap1\n      tag_74\n      jump\t// in\n    tag_80:\n      dup1\n      iszero\n      tag_81\n      jumpi\n      dup1\n      0x1f\n      lt\n      tag_82\n      jumpi\n      0x0100\n      dup1\n      dup4\n      sload\n      div\n      mul\n      dup4\n      mstore\n      swap2\n      0x20\n      add\n      swap2\n      jump(tag_81)\n    tag_82:\n      dup3\n      add\n      swap2\n      swap1\n      0x00\n      mstore\n      keccak256(0x00, 0x20)\n      swap1\n    tag_83:\n      dup2\n      sload\n      dup2\n      mstore\n      swap1\n      0x01\n      add\n      swap1\n      0x20\n      add\n      dup1\n      dup4\n      gt\n      tag_83\n      jumpi\n      dup3\n      swap1\n      sub\n      0x1f\n      and\n      dup3\n      add\n      swap2\n    tag_81:\n      pop\n      pop\n      pop\n      pop\n      pop\n      swap1\n      dup1\n      0x03\n      add\n      sload\n      swap1\n      dup1\n      0x04\n      add\n      sload\n      swap1\n      dup1\n      0x05\n      add\n      0x00\n      swap1\n      sload\n      swap1\n      0x0100\n      exp\n      swap1\n      div\n      0xff\n      and\n      swap1\n      pop\n      dup7\n      jump\t// out\n        /* \"contracts/CdAccount.sol\":1024:1120  function balanceOf() public view returns(uint) {\r... */\n    tag_26:\n        /* \"contracts/CdAccount.sol\":1065:1069  uint */\n      0x00\n        /* \"contracts/CdAccount.sol\":1090:1111  address(this).balance */\n      selfbalance\n        /* \"contracts/CdAccount.sol\":1083:1111  return address(this).balance */\n      swap1\n      pop\n        /* \"contracts/CdAccount.sol\":1024:1120  function balanceOf() public view returns(uint) {\r... */\n      swap1\n      jump\t// out\n        /* \"contracts/CdAccount.sol\":1941:2351  function availableToWithdraw(address walletAdress) public returns(bool) {\r... */\n    tag_33:\n        /* \"contracts/CdAccount.sol\":2007:2011  bool */\n      0x00\n        /* \"contracts/CdAccount.sol\":2024:2030  uint i */\n      dup1\n        /* \"contracts/CdAccount.sol\":2033:2055  getIndex(walletAdress) */\n      tag_86\n        /* \"contracts/CdAccount.sol\":2042:2054  walletAdress */\n      dup4\n        /* \"contracts/CdAccount.sol\":2033:2041  getIndex */\n      tag_49\n        /* \"contracts/CdAccount.sol\":2033:2055  getIndex(walletAdress) */\n      jump\t// in\n    tag_86:\n        /* \"contracts/CdAccount.sol\":2024:2055  uint i = getIndex(walletAdress) */\n      swap1\n      pop\n        /* \"contracts/CdAccount.sol\":2092:2105  benificiaries */\n      0x01\n        /* \"contracts/CdAccount.sol\":2106:2107  i */\n      dup2\n        /* \"contracts/CdAccount.sol\":2092:2108  benificiaries[i] */\n      dup2\n      sload\n      dup2\n      lt\n      tag_87\n      jumpi\n      tag_88\n      tag_52\n      jump\t// in\n    tag_88:\n    tag_87:\n      swap1\n      0x00\n      mstore\n      keccak256(0x00, 0x20)\n      swap1\n      0x06\n      mul\n      add\n        /* \"contracts/CdAccount.sol\":2092:2120  benificiaries[i].releaseTime */\n      0x03\n      add\n      sload\n        /* \"contracts/CdAccount.sol\":2074:2089  block.timestamp */\n      timestamp\n        /* \"contracts/CdAccount.sol\":2074:2120  block.timestamp > benificiaries[i].releaseTime */\n      gt\n        /* \"contracts/CdAccount.sol\":2066:2148  require(block.timestamp > benificiaries[i].releaseTime, \"You cannot withdraw yet\") */\n      tag_90\n      jumpi\n      mload(0x40)\n      0x08c379a000000000000000000000000000000000000000000000000000000000\n      dup2\n      mstore\n      0x04\n      add\n      tag_91\n      swap1\n      tag_92\n      jump\t// in\n    tag_91:\n      mload(0x40)\n      dup1\n      swap2\n      sub\n      swap1\n      revert\n    tag_90:\n        /* \"contracts/CdAccount.sol\":2181:2194  benificiaries */\n      0x01\n        /* \"contracts/CdAccount.sol\":2195:2196  i */\n      dup2\n        /* \"contracts/CdAccount.sol\":2181:2197  benificiaries[i] */\n      dup2\n      sload\n      dup2\n      lt\n      tag_93\n      jumpi\n      tag_94\n      tag_52\n      jump\t// in\n    tag_94:\n    tag_93:\n      swap1\n      0x00\n      mstore\n      keccak256(0x00, 0x20)\n      swap1\n      0x06\n      mul\n      add\n        /* \"contracts/CdAccount.sol\":2181:2209  benificiaries[i].releaseTime */\n      0x03\n      add\n      sload\n        /* \"contracts/CdAccount.sol\":2163:2178  block.timestamp */\n      timestamp\n        /* \"contracts/CdAccount.sol\":2163:2209  block.timestamp > benificiaries[i].releaseTime */\n      gt\n        /* \"contracts/CdAccount.sol\":2159:2344  if (block.timestamp > benificiaries[i].releaseTime) {\r... */\n      iszero\n      tag_96\n      jumpi\n        /* \"contracts/CdAccount.sol\":2257:2261  true */\n      0x01\n        /* \"contracts/CdAccount.sol\":2226:2239  benificiaries */\n      dup1\n        /* \"contracts/CdAccount.sol\":2240:2241  i */\n      dup3\n        /* \"contracts/CdAccount.sol\":2226:2242  benificiaries[i] */\n      dup2\n      sload\n      dup2\n      lt\n      tag_97\n      jumpi\n      tag_98\n      tag_52\n      jump\t// in\n    tag_98:\n    tag_97:\n      swap1\n      0x00\n      mstore\n      keccak256(0x00, 0x20)\n      swap1\n      0x06\n      mul\n      add\n        /* \"contracts/CdAccount.sol\":2226:2254  benificiaries[i].canWithdraw */\n      0x05\n      add\n      0x00\n        /* \"contracts/CdAccount.sol\":2226:2261  benificiaries[i].canWithdraw = true */\n      0x0100\n      exp\n      dup2\n      sload\n      dup2\n      0xff\n      mul\n      not\n      and\n      swap1\n      dup4\n      iszero\n      iszero\n      mul\n      or\n      swap1\n      sstore\n      pop\n        /* \"contracts/CdAccount.sol\":2283:2287  true */\n      0x01\n        /* \"contracts/CdAccount.sol\":2276:2287  return true */\n      swap2\n      pop\n      pop\n      jump(tag_85)\n        /* \"contracts/CdAccount.sol\":2159:2344  if (block.timestamp > benificiaries[i].releaseTime) {\r... */\n    tag_96:\n        /* \"contracts/CdAccount.sol\":2327:2332  false */\n      0x00\n        /* \"contracts/CdAccount.sol\":2320:2332  return false */\n      swap2\n      pop\n      pop\n        /* \"contracts/CdAccount.sol\":1941:2351  function availableToWithdraw(address walletAdress) public returns(bool) {\r... */\n    tag_85:\n      swap2\n      swap1\n      pop\n      jump\t// out\n        /* \"contracts/CdAccount.sol\":1200:1310  function deposit(address walletAdress) payable public {\r... */\n    tag_38:\n        /* \"contracts/CdAccount.sol\":1265:1302  addToBeneficiaryBalance(walletAdress) */\n      tag_102\n        /* \"contracts/CdAccount.sol\":1289:1301  walletAdress */\n      dup2\n        /* \"contracts/CdAccount.sol\":1265:1288  addToBeneficiaryBalance */\n      tag_103\n        /* \"contracts/CdAccount.sol\":1265:1302  addToBeneficiaryBalance(walletAdress) */\n      jump\t// in\n    tag_102:\n        /* \"contracts/CdAccount.sol\":1200:1310  function deposit(address walletAdress) payable public {\r... */\n      pop\n      jump\t// out\n        /* \"contracts/CdAccount.sol\":1612:1885  function getIndex(address walletAdress) view private returns(uint) {\r... */\n    tag_49:\n        /* \"contracts/CdAccount.sol\":1673:1677  uint */\n      0x00\n        /* \"contracts/CdAccount.sol\":1694:1700  uint i */\n      dup1\n        /* \"contracts/CdAccount.sol\":1703:1704  0 */\n      0x00\n        /* \"contracts/CdAccount.sol\":1694:1704  uint i = 0 */\n      swap1\n      pop\n        /* \"contracts/CdAccount.sol\":1690:1857  for(uint i = 0; i < benificiaries.length; i++) {\r... */\n    tag_105:\n        /* \"contracts/CdAccount.sol\":1710:1723  benificiaries */\n      0x01\n        /* \"contracts/CdAccount.sol\":1710:1730  benificiaries.length */\n      dup1\n      sload\n      swap1\n      pop\n        /* \"contracts/CdAccount.sol\":1706:1707  i */\n      dup2\n        /* \"contracts/CdAccount.sol\":1706:1730  i < benificiaries.length */\n      lt\n        /* \"contracts/CdAccount.sol\":1690:1857  for(uint i = 0; i < benificiaries.length; i++) {\r... */\n      iszero\n      tag_106\n      jumpi\n        /* \"contracts/CdAccount.sol\":1789:1801  walletAdress */\n      dup3\n        /* \"contracts/CdAccount.sol\":1756:1801  benificiaries[i].walletAdress == walletAdress */\n      0xffffffffffffffffffffffffffffffffffffffff\n      and\n        /* \"contracts/CdAccount.sol\":1756:1769  benificiaries */\n      0x01\n        /* \"contracts/CdAccount.sol\":1770:1771  i */\n      dup3\n        /* \"contracts/CdAccount.sol\":1756:1772  benificiaries[i] */\n      dup2\n      sload\n      dup2\n      lt\n      tag_108\n      jumpi\n      tag_109\n      tag_52\n      jump\t// in\n    tag_109:\n    tag_108:\n      swap1\n      0x00\n      mstore\n      keccak256(0x00, 0x20)\n      swap1\n      0x06\n      mul\n      add\n        /* \"contracts/CdAccount.sol\":1756:1785  benificiaries[i].walletAdress */\n      0x00\n      add\n      0x00\n      swap1\n      sload\n      swap1\n      0x0100\n      exp\n      swap1\n      div\n      0xffffffffffffffffffffffffffffffffffffffff\n      and\n        /* \"contracts/CdAccount.sol\":1756:1801  benificiaries[i].walletAdress == walletAdress */\n      0xffffffffffffffffffffffffffffffffffffffff\n      and\n      eq\n        /* \"contracts/CdAccount.sol\":1752:1846  if (benificiaries[i].walletAdress == walletAdress) {\r... */\n      iszero\n      tag_111\n      jumpi\n        /* \"contracts/CdAccount.sol\":1829:1830  i */\n      dup1\n        /* \"contracts/CdAccount.sol\":1822:1830  return i */\n      swap2\n      pop\n      pop\n      jump(tag_104)\n        /* \"contracts/CdAccount.sol\":1752:1846  if (benificiaries[i].walletAdress == walletAdress) {\r... */\n    tag_111:\n        /* \"contracts/CdAccount.sol\":1732:1735  i++ */\n      dup1\n      dup1\n      tag_112\n      swap1\n      tag_113\n      jump\t// in\n    tag_112:\n      swap2\n      pop\n      pop\n        /* \"contracts/CdAccount.sol\":1690:1857  for(uint i = 0; i < benificiaries.length; i++) {\r... */\n      jump(tag_105)\n    tag_106:\n      pop\n        /* \"contracts/CdAccount.sol\":1874:1877  999 */\n      0x03e7\n        /* \"contracts/CdAccount.sol\":1867:1877  return 999 */\n      swap1\n      pop\n        /* \"contracts/CdAccount.sol\":1612:1885  function getIndex(address walletAdress) view private returns(uint) {\r... */\n    tag_104:\n      swap2\n      swap1\n      pop\n      jump\t// out\n        /* \"contracts/CdAccount.sol\":1357:1548  function addToBeneficiaryBalance(address walletAdress) private {\r... */\n    tag_103:\n        /* \"contracts/CdAccount.sol\":1435:1441  uint i */\n      0x00\n        /* \"contracts/CdAccount.sol\":1431:1541  for(uint i = 0; i < benificiaries.length; i++) {\r... */\n    tag_115:\n        /* \"contracts/CdAccount.sol\":1451:1464  benificiaries */\n      0x01\n        /* \"contracts/CdAccount.sol\":1451:1471  benificiaries.length */\n      dup1\n      sload\n      swap1\n      pop\n        /* \"contracts/CdAccount.sol\":1447:1448  i */\n      dup2\n        /* \"contracts/CdAccount.sol\":1447:1471  i < benificiaries.length */\n      lt\n        /* \"contracts/CdAccount.sol\":1431:1541  for(uint i = 0; i < benificiaries.length; i++) {\r... */\n      iszero\n      tag_116\n      jumpi\n        /* \"contracts/CdAccount.sol\":1520:1529  msg.value */\n      callvalue\n        /* \"contracts/CdAccount.sol\":1493:1506  benificiaries */\n      0x01\n        /* \"contracts/CdAccount.sol\":1507:1508  i */\n      dup3\n        /* \"contracts/CdAccount.sol\":1493:1509  benificiaries[i] */\n      dup2\n      sload\n      dup2\n      lt\n      tag_118\n      jumpi\n      tag_119\n      tag_52\n      jump\t// in\n    tag_119:\n    tag_118:\n      swap1\n      0x00\n      mstore\n      keccak256(0x00, 0x20)\n      swap1\n      0x06\n      mul\n      add\n        /* \"contracts/CdAccount.sol\":1493:1516  benificiaries[i].amount */\n      0x04\n      add\n      0x00\n        /* \"contracts/CdAccount.sol\":1493:1529  benificiaries[i].amount += msg.value */\n      dup3\n      dup3\n      sload\n      tag_121\n      swap2\n      swap1\n      tag_122\n      jump\t// in\n    tag_121:\n      swap3\n      pop\n      pop\n      dup2\n      swap1\n      sstore\n      pop\n        /* \"contracts/CdAccount.sol\":1473:1476  i++ */\n      dup1\n      dup1\n      tag_123\n      swap1\n      tag_113\n      jump\t// in\n    tag_123:\n      swap2\n      pop\n      pop\n        /* \"contracts/CdAccount.sol\":1431:1541  for(uint i = 0; i < benificiaries.length; i++) {\r... */\n      jump(tag_115)\n    tag_116:\n      pop\n        /* \"contracts/CdAccount.sol\":1357:1548  function addToBeneficiaryBalance(address walletAdress) private {\r... */\n      pop\n      jump\t// out\n    tag_45:\n      dup3\n      dup1\n      sload\n      tag_124\n      swap1\n      tag_74\n      jump\t// in\n    tag_124:\n      swap1\n      0x00\n      mstore\n      keccak256(0x00, 0x20)\n      swap1\n      0x1f\n      add\n      0x20\n      swap1\n      div\n      dup2\n      add\n      swap3\n      dup3\n      tag_126\n      jumpi\n      0x00\n      dup6\n      sstore\n      jump(tag_125)\n    tag_126:\n      dup3\n      0x1f\n      lt\n      tag_127\n      jumpi\n      dup1\n      mload\n      not(0xff)\n      and\n      dup4\n      dup1\n      add\n      or\n      dup6\n      sstore\n      jump(tag_125)\n    tag_127:\n      dup3\n      dup1\n      add\n      0x01\n      add\n      dup6\n      sstore\n      dup3\n      iszero\n      tag_125\n      jumpi\n      swap2\n      dup3\n      add\n    tag_128:\n      dup3\n      dup2\n      gt\n      iszero\n      tag_129\n      jumpi\n      dup3\n      mload\n      dup3\n      sstore\n      swap2\n      0x20\n      add\n      swap2\n      swap1\n      0x01\n      add\n      swap1\n      jump(tag_128)\n    tag_129:\n    tag_125:\n      pop\n      swap1\n      pop\n      tag_130\n      swap2\n      swap1\n      tag_131\n      jump\t// in\n    tag_130:\n      pop\n      swap1\n      jump\t// out\n    tag_131:\n    tag_132:\n      dup1\n      dup3\n      gt\n      iszero\n      tag_133\n      jumpi\n      0x00\n      dup2\n      0x00\n      swap1\n      sstore\n      pop\n      0x01\n      add\n      jump(tag_132)\n    tag_133:\n      pop\n      swap1\n      jump\t// out\n        /* \"#utility.yul\":7:419   */\n    tag_135:\n        /* \"#utility.yul\":85:90   */\n      0x00\n        /* \"#utility.yul\":110:176   */\n      tag_137\n        /* \"#utility.yul\":126:175   */\n      tag_138\n        /* \"#utility.yul\":168:174   */\n      dup5\n        /* \"#utility.yul\":126:175   */\n      tag_139\n      jump\t// in\n    tag_138:\n        /* \"#utility.yul\":110:176   */\n      tag_140\n      jump\t// in\n    tag_137:\n        /* \"#utility.yul\":101:176   */\n      swap1\n      pop\n        /* \"#utility.yul\":199:205   */\n      dup3\n        /* \"#utility.yul\":192:197   */\n      dup2\n        /* \"#utility.yul\":185:206   */\n      mstore\n        /* \"#utility.yul\":237:241   */\n      0x20\n        /* \"#utility.yul\":230:235   */\n      dup2\n        /* \"#utility.yul\":226:242   */\n      add\n        /* \"#utility.yul\":275:278   */\n      dup5\n        /* \"#utility.yul\":266:272   */\n      dup5\n        /* \"#utility.yul\":261:264   */\n      dup5\n        /* \"#utility.yul\":257:273   */\n      add\n        /* \"#utility.yul\":254:279   */\n      gt\n        /* \"#utility.yul\":251:363   */\n      iszero\n      tag_141\n      jumpi\n        /* \"#utility.yul\":282:361   */\n      tag_142\n      tag_143\n      jump\t// in\n    tag_142:\n        /* \"#utility.yul\":251:363   */\n    tag_141:\n        /* \"#utility.yul\":372:413   */\n      tag_144\n        /* \"#utility.yul\":406:412   */\n      dup5\n        /* \"#utility.yul\":401:404   */\n      dup3\n        /* \"#utility.yul\":396:399   */\n      dup6\n        /* \"#utility.yul\":372:413   */\n      tag_145\n      jump\t// in\n    tag_144:\n        /* \"#utility.yul\":91:419   */\n      pop\n        /* \"#utility.yul\":7:419   */\n      swap4\n      swap3\n      pop\n      pop\n      pop\n      jump\t// out\n        /* \"#utility.yul\":425:564   */\n    tag_146:\n        /* \"#utility.yul\":471:476   */\n      0x00\n        /* \"#utility.yul\":509:515   */\n      dup2\n        /* \"#utility.yul\":496:516   */\n      calldataload\n        /* \"#utility.yul\":487:516   */\n      swap1\n      pop\n        /* \"#utility.yul\":525:558   */\n      tag_148\n        /* \"#utility.yul\":552:557   */\n      dup2\n        /* \"#utility.yul\":525:558   */\n      tag_149\n      jump\t// in\n    tag_148:\n        /* \"#utility.yul\":425:564   */\n      swap3\n      swap2\n      pop\n      pop\n      jump\t// out\n        /* \"#utility.yul\":570:725   */\n    tag_150:\n        /* \"#utility.yul\":624:629   */\n      0x00\n        /* \"#utility.yul\":662:668   */\n      dup2\n        /* \"#utility.yul\":649:669   */\n      calldataload\n        /* \"#utility.yul\":640:669   */\n      swap1\n      pop\n        /* \"#utility.yul\":678:719   */\n      tag_152\n        /* \"#utility.yul\":713:718   */\n      dup2\n        /* \"#utility.yul\":678:719   */\n      tag_153\n      jump\t// in\n    tag_152:\n        /* \"#utility.yul\":570:725   */\n      swap3\n      swap2\n      pop\n      pop\n      jump\t// out\n        /* \"#utility.yul\":731:864   */\n    tag_154:\n        /* \"#utility.yul\":774:779   */\n      0x00\n        /* \"#utility.yul\":812:818   */\n      dup2\n        /* \"#utility.yul\":799:819   */\n      calldataload\n        /* \"#utility.yul\":790:819   */\n      swap1\n      pop\n        /* \"#utility.yul\":828:858   */\n      tag_156\n        /* \"#utility.yul\":852:857   */\n      dup2\n        /* \"#utility.yul\":828:858   */\n      tag_157\n      jump\t// in\n    tag_156:\n        /* \"#utility.yul\":731:864   */\n      swap3\n      swap2\n      pop\n      pop\n      jump\t// out\n        /* \"#utility.yul\":884:1224   */\n    tag_158:\n        /* \"#utility.yul\":940:945   */\n      0x00\n        /* \"#utility.yul\":989:992   */\n      dup3\n        /* \"#utility.yul\":982:986   */\n      0x1f\n        /* \"#utility.yul\":974:980   */\n      dup4\n        /* \"#utility.yul\":970:987   */\n      add\n        /* \"#utility.yul\":966:993   */\n      slt\n        /* \"#utility.yul\":956:1078   */\n      tag_160\n      jumpi\n        /* \"#utility.yul\":997:1076   */\n      tag_161\n      tag_162\n      jump\t// in\n    tag_161:\n        /* \"#utility.yul\":956:1078   */\n    tag_160:\n        /* \"#utility.yul\":1114:1120   */\n      dup2\n        /* \"#utility.yul\":1101:1121   */\n      calldataload\n        /* \"#utility.yul\":1139:1218   */\n      tag_163\n        /* \"#utility.yul\":1214:1217   */\n      dup5\n        /* \"#utility.yul\":1206:1212   */\n      dup3\n        /* \"#utility.yul\":1199:1203   */\n      0x20\n        /* \"#utility.yul\":1191:1197   */\n      dup7\n        /* \"#utility.yul\":1187:1204   */\n      add\n        /* \"#utility.yul\":1139:1218   */\n      tag_135\n      jump\t// in\n    tag_163:\n        /* \"#utility.yul\":1130:1218   */\n      swap2\n      pop\n        /* \"#utility.yul\":946:1224   */\n      pop\n        /* \"#utility.yul\":884:1224   */\n      swap3\n      swap2\n      pop\n      pop\n      jump\t// out\n        /* \"#utility.yul\":1230:1369   */\n    tag_164:\n        /* \"#utility.yul\":1276:1281   */\n      0x00\n        /* \"#utility.yul\":1314:1320   */\n      dup2\n        /* \"#utility.yul\":1301:1321   */\n      calldataload\n        /* \"#utility.yul\":1292:1321   */\n      swap1\n      pop\n        /* \"#utility.yul\":1330:1363   */\n      tag_166\n        /* \"#utility.yul\":1357:1362   */\n      dup2\n        /* \"#utility.yul\":1330:1363   */\n      tag_167\n      jump\t// in\n    tag_166:\n        /* \"#utility.yul\":1230:1369   */\n      swap3\n      swap2\n      pop\n      pop\n      jump\t// out\n        /* \"#utility.yul\":1375:1704   */\n    tag_32:\n        /* \"#utility.yul\":1434:1440   */\n      0x00\n        /* \"#utility.yul\":1483:1485   */\n      0x20\n        /* \"#utility.yul\":1471:1480   */\n      dup3\n        /* \"#utility.yul\":1462:1469   */\n      dup5\n        /* \"#utility.yul\":1458:1481   */\n      sub\n        /* \"#utility.yul\":1454:1486   */\n      slt\n        /* \"#utility.yul\":1451:1570   */\n      iszero\n      tag_169\n      jumpi\n        /* \"#utility.yul\":1489:1568   */\n      tag_170\n      tag_171\n      jump\t// in\n    tag_170:\n        /* \"#utility.yul\":1451:1570   */\n    tag_169:\n        /* \"#utility.yul\":1609:1610   */\n      0x00\n        /* \"#utility.yul\":1634:1687   */\n      tag_172\n        /* \"#utility.yul\":1679:1686   */\n      dup5\n        /* \"#utility.yul\":1670:1676   */\n      dup3\n        /* \"#utility.yul\":1659:1668   */\n      dup6\n        /* \"#utility.yul\":1655:1677   */\n      add\n        /* \"#utility.yul\":1634:1687   */\n      tag_146\n      jump\t// in\n    tag_172:\n        /* \"#utility.yul\":1624:1687   */\n      swap2\n      pop\n        /* \"#utility.yul\":1580:1697   */\n      pop\n        /* \"#utility.yul\":1375:1704   */\n      swap3\n      swap2\n      pop\n      pop\n      jump\t// out\n        /* \"#utility.yul\":1710:2055   */\n    tag_15:\n        /* \"#utility.yul\":1777:1783   */\n      0x00\n        /* \"#utility.yul\":1826:1828   */\n      0x20\n        /* \"#utility.yul\":1814:1823   */\n      dup3\n        /* \"#utility.yul\":1805:1812   */\n      dup5\n        /* \"#utility.yul\":1801:1824   */\n      sub\n        /* \"#utility.yul\":1797:1829   */\n      slt\n        /* \"#utility.yul\":1794:1913   */\n      iszero\n      tag_174\n      jumpi\n        /* \"#utility.yul\":1832:1911   */\n      tag_175\n      tag_171\n      jump\t// in\n    tag_175:\n        /* \"#utility.yul\":1794:1913   */\n    tag_174:\n        /* \"#utility.yul\":1952:1953   */\n      0x00\n        /* \"#utility.yul\":1977:2038   */\n      tag_176\n        /* \"#utility.yul\":2030:2037   */\n      dup5\n        /* \"#utility.yul\":2021:2027   */\n      dup3\n        /* \"#utility.yul\":2010:2019   */\n      dup6\n        /* \"#utility.yul\":2006:2028   */\n      add\n        /* \"#utility.yul\":1977:2038   */\n      tag_150\n      jump\t// in\n    tag_176:\n        /* \"#utility.yul\":1967:2038   */\n      swap2\n      pop\n        /* \"#utility.yul\":1923:2048   */\n      pop\n        /* \"#utility.yul\":1710:2055   */\n      swap3\n      swap2\n      pop\n      pop\n      jump\t// out\n        /* \"#utility.yul\":2061:3488   */\n    tag_11:\n        /* \"#utility.yul\":2190:2196   */\n      0x00\n        /* \"#utility.yul\":2198:2204   */\n      dup1\n        /* \"#utility.yul\":2206:2212   */\n      0x00\n        /* \"#utility.yul\":2214:2220   */\n      dup1\n        /* \"#utility.yul\":2222:2228   */\n      0x00\n        /* \"#utility.yul\":2230:2236   */\n      dup1\n        /* \"#utility.yul\":2279:2282   */\n      0xc0\n        /* \"#utility.yul\":2267:2276   */\n      dup8\n        /* \"#utility.yul\":2258:2265   */\n      dup10\n        /* \"#utility.yul\":2254:2277   */\n      sub\n        /* \"#utility.yul\":2250:2283   */\n      slt\n        /* \"#utility.yul\":2247:2367   */\n      iszero\n      tag_178\n      jumpi\n        /* \"#utility.yul\":2286:2365   */\n      tag_179\n      tag_171\n      jump\t// in\n    tag_179:\n        /* \"#utility.yul\":2247:2367   */\n    tag_178:\n        /* \"#utility.yul\":2406:2407   */\n      0x00\n        /* \"#utility.yul\":2431:2492   */\n      tag_180\n        /* \"#utility.yul\":2484:2491   */\n      dup10\n        /* \"#utility.yul\":2475:2481   */\n      dup3\n        /* \"#utility.yul\":2464:2473   */\n      dup11\n        /* \"#utility.yul\":2460:2482   */\n      add\n        /* \"#utility.yul\":2431:2492   */\n      tag_150\n      jump\t// in\n    tag_180:\n        /* \"#utility.yul\":2421:2492   */\n      swap7\n      pop\n        /* \"#utility.yul\":2377:2502   */\n      pop\n        /* \"#utility.yul\":2569:2571   */\n      0x20\n        /* \"#utility.yul\":2558:2567   */\n      dup8\n        /* \"#utility.yul\":2554:2572   */\n      add\n        /* \"#utility.yul\":2541:2573   */\n      calldataload\n        /* \"#utility.yul\":2600:2618   */\n      0xffffffffffffffff\n        /* \"#utility.yul\":2592:2598   */\n      dup2\n        /* \"#utility.yul\":2589:2619   */\n      gt\n        /* \"#utility.yul\":2586:2703   */\n      iszero\n      tag_181\n      jumpi\n        /* \"#utility.yul\":2622:2701   */\n      tag_182\n      tag_183\n      jump\t// in\n    tag_182:\n        /* \"#utility.yul\":2586:2703   */\n    tag_181:\n        /* \"#utility.yul\":2727:2790   */\n      tag_184\n        /* \"#utility.yul\":2782:2789   */\n      dup10\n        /* \"#utility.yul\":2773:2779   */\n      dup3\n        /* \"#utility.yul\":2762:2771   */\n      dup11\n        /* \"#utility.yul\":2758:2780   */\n      add\n        /* \"#utility.yul\":2727:2790   */\n      tag_158\n      jump\t// in\n    tag_184:\n        /* \"#utility.yul\":2717:2790   */\n      swap6\n      pop\n        /* \"#utility.yul\":2512:2800   */\n      pop\n        /* \"#utility.yul\":2867:2869   */\n      0x40\n        /* \"#utility.yul\":2856:2865   */\n      dup8\n        /* \"#utility.yul\":2852:2870   */\n      add\n        /* \"#utility.yul\":2839:2871   */\n      calldataload\n        /* \"#utility.yul\":2898:2916   */\n      0xffffffffffffffff\n        /* \"#utility.yul\":2890:2896   */\n      dup2\n        /* \"#utility.yul\":2887:2917   */\n      gt\n        /* \"#utility.yul\":2884:3001   */\n      iszero\n      tag_185\n      jumpi\n        /* \"#utility.yul\":2920:2999   */\n      tag_186\n      tag_183\n      jump\t// in\n    tag_186:\n        /* \"#utility.yul\":2884:3001   */\n    tag_185:\n        /* \"#utility.yul\":3025:3088   */\n      tag_187\n        /* \"#utility.yul\":3080:3087   */\n      dup10\n        /* \"#utility.yul\":3071:3077   */\n      dup3\n        /* \"#utility.yul\":3060:3069   */\n      dup11\n        /* \"#utility.yul\":3056:3078   */\n      add\n        /* \"#utility.yul\":3025:3088   */\n      tag_158\n      jump\t// in\n    tag_187:\n        /* \"#utility.yul\":3015:3088   */\n      swap5\n      pop\n        /* \"#utility.yul\":2810:3098   */\n      pop\n        /* \"#utility.yul\":3137:3139   */\n      0x60\n        /* \"#utility.yul\":3163:3216   */\n      tag_188\n        /* \"#utility.yul\":3208:3215   */\n      dup10\n        /* \"#utility.yul\":3199:3205   */\n      dup3\n        /* \"#utility.yul\":3188:3197   */\n      dup11\n        /* \"#utility.yul\":3184:3206   */\n      add\n        /* \"#utility.yul\":3163:3216   */\n      tag_164\n      jump\t// in\n    tag_188:\n        /* \"#utility.yul\":3153:3216   */\n      swap4\n      pop\n        /* \"#utility.yul\":3108:3226   */\n      pop\n        /* \"#utility.yul\":3265:3268   */\n      0x80\n        /* \"#utility.yul\":3292:3345   */\n      tag_189\n        /* \"#utility.yul\":3337:3344   */\n      dup10\n        /* \"#utility.yul\":3328:3334   */\n      dup3\n        /* \"#utility.yul\":3317:3326   */\n      dup11\n        /* \"#utility.yul\":3313:3335   */\n      add\n        /* \"#utility.yul\":3292:3345   */\n      tag_164\n      jump\t// in\n    tag_189:\n        /* \"#utility.yul\":3282:3345   */\n      swap3\n      pop\n        /* \"#utility.yul\":3236:3355   */\n      pop\n        /* \"#utility.yul\":3394:3397   */\n      0xa0\n        /* \"#utility.yul\":3421:3471   */\n      tag_190\n        /* \"#utility.yul\":3463:3470   */\n      dup10\n        /* \"#utility.yul\":3454:3460   */\n      dup3\n        /* \"#utility.yul\":3443:3452   */\n      dup11\n        /* \"#utility.yul\":3439:3461   */\n      add\n        /* \"#utility.yul\":3421:3471   */\n      tag_154\n      jump\t// in\n    tag_190:\n        /* \"#utility.yul\":3411:3471   */\n      swap2\n      pop\n        /* \"#utility.yul\":3365:3481   */\n      pop\n        /* \"#utility.yul\":2061:3488   */\n      swap3\n      swap6\n      pop\n      swap3\n      swap6\n      pop\n      swap3\n      swap6\n      jump\t// out\n        /* \"#utility.yul\":3494:3823   */\n    tag_20:\n        /* \"#utility.yul\":3553:3559   */\n      0x00\n        /* \"#utility.yul\":3602:3604   */\n      0x20\n        /* \"#utility.yul\":3590:3599   */\n      dup3\n        /* \"#utility.yul\":3581:3588   */\n      dup5\n        /* \"#utility.yul\":3577:3600   */\n      sub\n        /* \"#utility.yul\":3573:3605   */\n      slt\n        /* \"#utility.yul\":3570:3689   */\n      iszero\n      tag_192\n      jumpi\n        /* \"#utility.yul\":3608:3687   */\n      tag_193\n      tag_171\n      jump\t// in\n    tag_193:\n        /* \"#utility.yul\":3570:3689   */\n    tag_192:\n        /* \"#utility.yul\":3728:3729   */\n      0x00\n        /* \"#utility.yul\":3753:3806   */\n      tag_194\n        /* \"#utility.yul\":3798:3805   */\n      dup5\n        /* \"#utility.yul\":3789:3795   */\n      dup3\n        /* \"#utility.yul\":3778:3787   */\n      dup6\n        /* \"#utility.yul\":3774:3796   */\n      add\n        /* \"#utility.yul\":3753:3806   */\n      tag_164\n      jump\t// in\n    tag_194:\n        /* \"#utility.yul\":3743:3806   */\n      swap2\n      pop\n        /* \"#utility.yul\":3699:3816   */\n      pop\n        /* \"#utility.yul\":3494:3823   */\n      swap3\n      swap2\n      pop\n      pop\n      jump\t// out\n        /* \"#utility.yul\":3829:3971   */\n    tag_195:\n        /* \"#utility.yul\":3932:3964   */\n      tag_197\n        /* \"#utility.yul\":3958:3963   */\n      dup2\n        /* \"#utility.yul\":3932:3964   */\n      tag_198\n      jump\t// in\n    tag_197:\n        /* \"#utility.yul\":3927:3930   */\n      dup3\n        /* \"#utility.yul\":3920:3965   */\n      mstore\n        /* \"#utility.yul\":3829:3971   */\n      pop\n      pop\n      jump\t// out\n        /* \"#utility.yul\":3977:4086   */\n    tag_199:\n        /* \"#utility.yul\":4058:4079   */\n      tag_201\n        /* \"#utility.yul\":4073:4078   */\n      dup2\n        /* \"#utility.yul\":4058:4079   */\n      tag_202\n      jump\t// in\n    tag_201:\n        /* \"#utility.yul\":4053:4056   */\n      dup3\n        /* \"#utility.yul\":4046:4080   */\n      mstore\n        /* \"#utility.yul\":3977:4086   */\n      pop\n      pop\n      jump\t// out\n        /* \"#utility.yul\":4092:4456   */\n    tag_203:\n        /* \"#utility.yul\":4180:4183   */\n      0x00\n        /* \"#utility.yul\":4208:4247   */\n      tag_205\n        /* \"#utility.yul\":4241:4246   */\n      dup3\n        /* \"#utility.yul\":4208:4247   */\n      tag_206\n      jump\t// in\n    tag_205:\n        /* \"#utility.yul\":4263:4334   */\n      tag_207\n        /* \"#utility.yul\":4327:4333   */\n      dup2\n        /* \"#utility.yul\":4322:4325   */\n      dup6\n        /* \"#utility.yul\":4263:4334   */\n      tag_208\n      jump\t// in\n    tag_207:\n        /* \"#utility.yul\":4256:4334   */\n      swap4\n      pop\n        /* \"#utility.yul\":4343:4395   */\n      tag_209\n        /* \"#utility.yul\":4388:4394   */\n      dup2\n        /* \"#utility.yul\":4383:4386   */\n      dup6\n        /* \"#utility.yul\":4376:4380   */\n      0x20\n        /* \"#utility.yul\":4369:4374   */\n      dup7\n        /* \"#utility.yul\":4365:4381   */\n      add\n        /* \"#utility.yul\":4343:4395   */\n      tag_210\n      jump\t// in\n    tag_209:\n        /* \"#utility.yul\":4420:4449   */\n      tag_211\n        /* \"#utility.yul\":4442:4448   */\n      dup2\n        /* \"#utility.yul\":4420:4449   */\n      tag_212\n      jump\t// in\n    tag_211:\n        /* \"#utility.yul\":4415:4418   */\n      dup5\n        /* \"#utility.yul\":4411:4450   */\n      add\n        /* \"#utility.yul\":4404:4450   */\n      swap2\n      pop\n        /* \"#utility.yul\":4184:4456   */\n      pop\n        /* \"#utility.yul\":4092:4456   */\n      swap3\n      swap2\n      pop\n      pop\n      jump\t// out\n        /* \"#utility.yul\":4462:4828   */\n    tag_213:\n        /* \"#utility.yul\":4604:4607   */\n      0x00\n        /* \"#utility.yul\":4625:4692   */\n      tag_215\n        /* \"#utility.yul\":4689:4691   */\n      0x20\n        /* \"#utility.yul\":4684:4687   */\n      dup4\n        /* \"#utility.yul\":4625:4692   */\n      tag_208\n      jump\t// in\n    tag_215:\n        /* \"#utility.yul\":4618:4692   */\n      swap2\n      pop\n        /* \"#utility.yul\":4701:4794   */\n      tag_216\n        /* \"#utility.yul\":4790:4793   */\n      dup3\n        /* \"#utility.yul\":4701:4794   */\n      tag_217\n      jump\t// in\n    tag_216:\n        /* \"#utility.yul\":4819:4821   */\n      0x20\n        /* \"#utility.yul\":4814:4817   */\n      dup3\n        /* \"#utility.yul\":4810:4822   */\n      add\n        /* \"#utility.yul\":4803:4822   */\n      swap1\n      pop\n        /* \"#utility.yul\":4462:4828   */\n      swap2\n      swap1\n      pop\n      jump\t// out\n        /* \"#utility.yul\":4834:5200   */\n    tag_218:\n        /* \"#utility.yul\":4976:4979   */\n      0x00\n        /* \"#utility.yul\":4997:5064   */\n      tag_220\n        /* \"#utility.yul\":5061:5063   */\n      0x17\n        /* \"#utility.yul\":5056:5059   */\n      dup4\n        /* \"#utility.yul\":4997:5064   */\n      tag_208\n      jump\t// in\n    tag_220:\n        /* \"#utility.yul\":4990:5064   */\n      swap2\n      pop\n        /* \"#utility.yul\":5073:5166   */\n      tag_221\n        /* \"#utility.yul\":5162:5165   */\n      dup3\n        /* \"#utility.yul\":5073:5166   */\n      tag_222\n      jump\t// in\n    tag_221:\n        /* \"#utility.yul\":5191:5193   */\n      0x20\n        /* \"#utility.yul\":5186:5189   */\n      dup3\n        /* \"#utility.yul\":5182:5194   */\n      add\n        /* \"#utility.yul\":5175:5194   */\n      swap1\n      pop\n        /* \"#utility.yul\":4834:5200   */\n      swap2\n      swap1\n      pop\n      jump\t// out\n        /* \"#utility.yul\":5206:5572   */\n    tag_223:\n        /* \"#utility.yul\":5348:5351   */\n      0x00\n        /* \"#utility.yul\":5369:5436   */\n      tag_225\n        /* \"#utility.yul\":5433:5435   */\n      0x27\n        /* \"#utility.yul\":5428:5431   */\n      dup4\n        /* \"#utility.yul\":5369:5436   */\n      tag_208\n      jump\t// in\n    tag_225:\n        /* \"#utility.yul\":5362:5436   */\n      swap2\n      pop\n        /* \"#utility.yul\":5445:5538   */\n      tag_226\n        /* \"#utility.yul\":5534:5537   */\n      dup3\n        /* \"#utility.yul\":5445:5538   */\n      tag_227\n      jump\t// in\n    tag_226:\n        /* \"#utility.yul\":5563:5565   */\n      0x40\n        /* \"#utility.yul\":5558:5561   */\n      dup3\n        /* \"#utility.yul\":5554:5566   */\n      add\n        /* \"#utility.yul\":5547:5566   */\n      swap1\n      pop\n        /* \"#utility.yul\":5206:5572   */\n      swap2\n      swap1\n      pop\n      jump\t// out\n        /* \"#utility.yul\":5578:5944   */\n    tag_228:\n        /* \"#utility.yul\":5720:5723   */\n      0x00\n        /* \"#utility.yul\":5741:5808   */\n      tag_230\n        /* \"#utility.yul\":5805:5807   */\n      0x23\n        /* \"#utility.yul\":5800:5803   */\n      dup4\n        /* \"#utility.yul\":5741:5808   */\n      tag_208\n      jump\t// in\n    tag_230:\n        /* \"#utility.yul\":5734:5808   */\n      swap2\n      pop\n        /* \"#utility.yul\":5817:5910   */\n      tag_231\n        /* \"#utility.yul\":5906:5909   */\n      dup3\n        /* \"#utility.yul\":5817:5910   */\n      tag_232\n      jump\t// in\n    tag_231:\n        /* \"#utility.yul\":5935:5937   */\n      0x40\n        /* \"#utility.yul\":5930:5933   */\n      dup3\n        /* \"#utility.yul\":5926:5938   */\n      add\n        /* \"#utility.yul\":5919:5938   */\n      swap1\n      pop\n        /* \"#utility.yul\":5578:5944   */\n      swap2\n      swap1\n      pop\n      jump\t// out\n        /* \"#utility.yul\":5950:6068   */\n    tag_233:\n        /* \"#utility.yul\":6037:6061   */\n      tag_235\n        /* \"#utility.yul\":6055:6060   */\n      dup2\n        /* \"#utility.yul\":6037:6061   */\n      tag_236\n      jump\t// in\n    tag_235:\n        /* \"#utility.yul\":6032:6035   */\n      dup3\n        /* \"#utility.yul\":6025:6062   */\n      mstore\n        /* \"#utility.yul\":5950:6068   */\n      pop\n      pop\n      jump\t// out\n        /* \"#utility.yul\":6074:7051   */\n    tag_23:\n        /* \"#utility.yul\":6357:6361   */\n      0x00\n        /* \"#utility.yul\":6395:6398   */\n      0xc0\n        /* \"#utility.yul\":6384:6393   */\n      dup3\n        /* \"#utility.yul\":6380:6399   */\n      add\n        /* \"#utility.yul\":6372:6399   */\n      swap1\n      pop\n        /* \"#utility.yul\":6409:6496   */\n      tag_238\n        /* \"#utility.yul\":6493:6494   */\n      0x00\n        /* \"#utility.yul\":6482:6491   */\n      dup4\n        /* \"#utility.yul\":6478:6495   */\n      add\n        /* \"#utility.yul\":6469:6475   */\n      dup10\n        /* \"#utility.yul\":6409:6496   */\n      tag_195\n      jump\t// in\n    tag_238:\n        /* \"#utility.yul\":6543:6552   */\n      dup2\n        /* \"#utility.yul\":6537:6541   */\n      dup2\n        /* \"#utility.yul\":6533:6553   */\n      sub\n        /* \"#utility.yul\":6528:6530   */\n      0x20\n        /* \"#utility.yul\":6517:6526   */\n      dup4\n        /* \"#utility.yul\":6513:6531   */\n      add\n        /* \"#utility.yul\":6506:6554   */\n      mstore\n        /* \"#utility.yul\":6571:6649   */\n      tag_239\n        /* \"#utility.yul\":6644:6648   */\n      dup2\n        /* \"#utility.yul\":6635:6641   */\n      dup9\n        /* \"#utility.yul\":6571:6649   */\n      tag_203\n      jump\t// in\n    tag_239:\n        /* \"#utility.yul\":6563:6649   */\n      swap1\n      pop\n        /* \"#utility.yul\":6696:6705   */\n      dup2\n        /* \"#utility.yul\":6690:6694   */\n      dup2\n        /* \"#utility.yul\":6686:6706   */\n      sub\n        /* \"#utility.yul\":6681:6683   */\n      0x40\n        /* \"#utility.yul\":6670:6679   */\n      dup4\n        /* \"#utility.yul\":6666:6684   */\n      add\n        /* \"#utility.yul\":6659:6707   */\n      mstore\n        /* \"#utility.yul\":6724:6802   */\n      tag_240\n        /* \"#utility.yul\":6797:6801   */\n      dup2\n        /* \"#utility.yul\":6788:6794   */\n      dup8\n        /* \"#utility.yul\":6724:6802   */\n      tag_203\n      jump\t// in\n    tag_240:\n        /* \"#utility.yul\":6716:6802   */\n      swap1\n      pop\n        /* \"#utility.yul\":6812:6884   */\n      tag_241\n        /* \"#utility.yul\":6880:6882   */\n      0x60\n        /* \"#utility.yul\":6869:6878   */\n      dup4\n        /* \"#utility.yul\":6865:6883   */\n      add\n        /* \"#utility.yul\":6856:6862   */\n      dup7\n        /* \"#utility.yul\":6812:6884   */\n      tag_233\n      jump\t// in\n    tag_241:\n        /* \"#utility.yul\":6894:6967   */\n      tag_242\n        /* \"#utility.yul\":6962:6965   */\n      0x80\n        /* \"#utility.yul\":6951:6960   */\n      dup4\n        /* \"#utility.yul\":6947:6966   */\n      add\n        /* \"#utility.yul\":6938:6944   */\n      dup6\n        /* \"#utility.yul\":6894:6967   */\n      tag_233\n      jump\t// in\n    tag_242:\n        /* \"#utility.yul\":6977:7044   */\n      tag_243\n        /* \"#utility.yul\":7039:7042   */\n      0xa0\n        /* \"#utility.yul\":7028:7037   */\n      dup4\n        /* \"#utility.yul\":7024:7043   */\n      add\n        /* \"#utility.yul\":7015:7021   */\n      dup5\n        /* \"#utility.yul\":6977:7044   */\n      tag_199\n      jump\t// in\n    tag_243:\n        /* \"#utility.yul\":6074:7051   */\n      swap8\n      swap7\n      pop\n      pop\n      pop\n      pop\n      pop\n      pop\n      pop\n      jump\t// out\n        /* \"#utility.yul\":7057:7267   */\n    tag_35:\n        /* \"#utility.yul\":7144:7148   */\n      0x00\n        /* \"#utility.yul\":7182:7184   */\n      0x20\n        /* \"#utility.yul\":7171:7180   */\n      dup3\n        /* \"#utility.yul\":7167:7185   */\n      add\n        /* \"#utility.yul\":7159:7185   */\n      swap1\n      pop\n        /* \"#utility.yul\":7195:7260   */\n      tag_245\n        /* \"#utility.yul\":7257:7258   */\n      0x00\n        /* \"#utility.yul\":7246:7255   */\n      dup4\n        /* \"#utility.yul\":7242:7259   */\n      add\n        /* \"#utility.yul\":7233:7239   */\n      dup5\n        /* \"#utility.yul\":7195:7260   */\n      tag_199\n      jump\t// in\n    tag_245:\n        /* \"#utility.yul\":7057:7267   */\n      swap3\n      swap2\n      pop\n      pop\n      jump\t// out\n        /* \"#utility.yul\":7273:7692   */\n    tag_62:\n        /* \"#utility.yul\":7439:7443   */\n      0x00\n        /* \"#utility.yul\":7477:7479   */\n      0x20\n        /* \"#utility.yul\":7466:7475   */\n      dup3\n        /* \"#utility.yul\":7462:7480   */\n      add\n        /* \"#utility.yul\":7454:7480   */\n      swap1\n      pop\n        /* \"#utility.yul\":7526:7535   */\n      dup2\n        /* \"#utility.yul\":7520:7524   */\n      dup2\n        /* \"#utility.yul\":7516:7536   */\n      sub\n        /* \"#utility.yul\":7512:7513   */\n      0x00\n        /* \"#utility.yul\":7501:7510   */\n      dup4\n        /* \"#utility.yul\":7497:7514   */\n      add\n        /* \"#utility.yul\":7490:7537   */\n      mstore\n        /* \"#utility.yul\":7554:7685   */\n      tag_247\n        /* \"#utility.yul\":7680:7684   */\n      dup2\n        /* \"#utility.yul\":7554:7685   */\n      tag_213\n      jump\t// in\n    tag_247:\n        /* \"#utility.yul\":7546:7685   */\n      swap1\n      pop\n        /* \"#utility.yul\":7273:7692   */\n      swap2\n      swap1\n      pop\n      jump\t// out\n        /* \"#utility.yul\":7698:8117   */\n    tag_92:\n        /* \"#utility.yul\":7864:7868   */\n      0x00\n        /* \"#utility.yul\":7902:7904   */\n      0x20\n        /* \"#utility.yul\":7891:7900   */\n      dup3\n        /* \"#utility.yul\":7887:7905   */\n      add\n        /* \"#utility.yul\":7879:7905   */\n      swap1\n      pop\n        /* \"#utility.yul\":7951:7960   */\n      dup2\n        /* \"#utility.yul\":7945:7949   */\n      dup2\n        /* \"#utility.yul\":7941:7961   */\n      sub\n        /* \"#utility.yul\":7937:7938   */\n      0x00\n        /* \"#utility.yul\":7926:7935   */\n      dup4\n        /* \"#utility.yul\":7922:7939   */\n      add\n        /* \"#utility.yul\":7915:7962   */\n      mstore\n        /* \"#utility.yul\":7979:8110   */\n      tag_249\n        /* \"#utility.yul\":8105:8109   */\n      dup2\n        /* \"#utility.yul\":7979:8110   */\n      tag_218\n      jump\t// in\n    tag_249:\n        /* \"#utility.yul\":7971:8110   */\n      swap1\n      pop\n        /* \"#utility.yul\":7698:8117   */\n      swap2\n      swap1\n      pop\n      jump\t// out\n        /* \"#utility.yul\":8123:8542   */\n    tag_56:\n        /* \"#utility.yul\":8289:8293   */\n      0x00\n        /* \"#utility.yul\":8327:8329   */\n      0x20\n        /* \"#utility.yul\":8316:8325   */\n      dup3\n        /* \"#utility.yul\":8312:8330   */\n      add\n        /* \"#utility.yul\":8304:8330   */\n      swap1\n      pop\n        /* \"#utility.yul\":8376:8385   */\n      dup2\n        /* \"#utility.yul\":8370:8374   */\n      dup2\n        /* \"#utility.yul\":8366:8386   */\n      sub\n        /* \"#utility.yul\":8362:8363   */\n      0x00\n        /* \"#utility.yul\":8351:8360   */\n      dup4\n        /* \"#utility.yul\":8347:8364   */\n      add\n        /* \"#utility.yul\":8340:8387   */\n      mstore\n        /* \"#utility.yul\":8404:8535   */\n      tag_251\n        /* \"#utility.yul\":8530:8534   */\n      dup2\n        /* \"#utility.yul\":8404:8535   */\n      tag_223\n      jump\t// in\n    tag_251:\n        /* \"#utility.yul\":8396:8535   */\n      swap1\n      pop\n        /* \"#utility.yul\":8123:8542   */\n      swap2\n      swap1\n      pop\n      jump\t// out\n        /* \"#utility.yul\":8548:8967   */\n    tag_42:\n        /* \"#utility.yul\":8714:8718   */\n      0x00\n        /* \"#utility.yul\":8752:8754   */\n      0x20\n        /* \"#utility.yul\":8741:8750   */\n      dup3\n        /* \"#utility.yul\":8737:8755   */\n      add\n        /* \"#utility.yul\":8729:8755   */\n      swap1\n      pop\n        /* \"#utility.yul\":8801:8810   */\n      dup2\n        /* \"#utility.yul\":8795:8799   */\n      dup2\n        /* \"#utility.yul\":8791:8811   */\n      sub\n        /* \"#utility.yul\":8787:8788   */\n      0x00\n        /* \"#utility.yul\":8776:8785   */\n      dup4\n        /* \"#utility.yul\":8772:8789   */\n      add\n        /* \"#utility.yul\":8765:8812   */\n      mstore\n        /* \"#utility.yul\":8829:8960   */\n      tag_253\n        /* \"#utility.yul\":8955:8959   */\n      dup2\n        /* \"#utility.yul\":8829:8960   */\n      tag_228\n      jump\t// in\n    tag_253:\n        /* \"#utility.yul\":8821:8960   */\n      swap1\n      pop\n        /* \"#utility.yul\":8548:8967   */\n      swap2\n      swap1\n      pop\n      jump\t// out\n        /* \"#utility.yul\":8973:9195   */\n    tag_28:\n        /* \"#utility.yul\":9066:9070   */\n      0x00\n        /* \"#utility.yul\":9104:9106   */\n      0x20\n        /* \"#utility.yul\":9093:9102   */\n      dup3\n        /* \"#utility.yul\":9089:9107   */\n      add\n        /* \"#utility.yul\":9081:9107   */\n      swap1\n      pop\n        /* \"#utility.yul\":9117:9188   */\n      tag_255\n        /* \"#utility.yul\":9185:9186   */\n      0x00\n        /* \"#utility.yul\":9174:9183   */\n      dup4\n        /* \"#utility.yul\":9170:9187   */\n      add\n        /* \"#utility.yul\":9161:9167   */\n      dup5\n        /* \"#utility.yul\":9117:9188   */\n      tag_233\n      jump\t// in\n    tag_255:\n        /* \"#utility.yul\":8973:9195   */\n      swap3\n      swap2\n      pop\n      pop\n      jump\t// out\n        /* \"#utility.yul\":9201:9330   */\n    tag_140:\n        /* \"#utility.yul\":9235:9241   */\n      0x00\n        /* \"#utility.yul\":9262:9282   */\n      tag_257\n      tag_258\n      jump\t// in\n    tag_257:\n        /* \"#utility.yul\":9252:9282   */\n      swap1\n      pop\n        /* \"#utility.yul\":9291:9324   */\n      tag_259\n        /* \"#utility.yul\":9319:9323   */\n      dup3\n        /* \"#utility.yul\":9311:9317   */\n      dup3\n        /* \"#utility.yul\":9291:9324   */\n      tag_260\n      jump\t// in\n    tag_259:\n        /* \"#utility.yul\":9201:9330   */\n      swap2\n      swap1\n      pop\n      jump\t// out\n        /* \"#utility.yul\":9336:9411   */\n    tag_258:\n        /* \"#utility.yul\":9369:9375   */\n      0x00\n        /* \"#utility.yul\":9402:9404   */\n      0x40\n        /* \"#utility.yul\":9396:9405   */\n      mload\n        /* \"#utility.yul\":9386:9405   */\n      swap1\n      pop\n        /* \"#utility.yul\":9336:9411   */\n      swap1\n      jump\t// out\n        /* \"#utility.yul\":9417:9725   */\n    tag_139:\n        /* \"#utility.yul\":9479:9483   */\n      0x00\n        /* \"#utility.yul\":9569:9587   */\n      0xffffffffffffffff\n        /* \"#utility.yul\":9561:9567   */\n      dup3\n        /* \"#utility.yul\":9558:9588   */\n      gt\n        /* \"#utility.yul\":9555:9611   */\n      iszero\n      tag_263\n      jumpi\n        /* \"#utility.yul\":9591:9609   */\n      tag_264\n      tag_265\n      jump\t// in\n    tag_264:\n        /* \"#utility.yul\":9555:9611   */\n    tag_263:\n        /* \"#utility.yul\":9629:9658   */\n      tag_266\n        /* \"#utility.yul\":9651:9657   */\n      dup3\n        /* \"#utility.yul\":9629:9658   */\n      tag_212\n      jump\t// in\n    tag_266:\n        /* \"#utility.yul\":9621:9658   */\n      swap1\n      pop\n        /* \"#utility.yul\":9713:9717   */\n      0x20\n        /* \"#utility.yul\":9707:9711   */\n      dup2\n        /* \"#utility.yul\":9703:9718   */\n      add\n        /* \"#utility.yul\":9695:9718   */\n      swap1\n      pop\n        /* \"#utility.yul\":9417:9725   */\n      swap2\n      swap1\n      pop\n      jump\t// out\n        /* \"#utility.yul\":9731:9830   */\n    tag_206:\n        /* \"#utility.yul\":9783:9789   */\n      0x00\n        /* \"#utility.yul\":9817:9822   */\n      dup2\n        /* \"#utility.yul\":9811:9823   */\n      mload\n        /* \"#utility.yul\":9801:9823   */\n      swap1\n      pop\n        /* \"#utility.yul\":9731:9830   */\n      swap2\n      swap1\n      pop\n      jump\t// out\n        /* \"#utility.yul\":9836:10005   */\n    tag_208:\n        /* \"#utility.yul\":9920:9931   */\n      0x00\n        /* \"#utility.yul\":9954:9960   */\n      dup3\n        /* \"#utility.yul\":9949:9952   */\n      dup3\n        /* \"#utility.yul\":9942:9961   */\n      mstore\n        /* \"#utility.yul\":9994:9998   */\n      0x20\n        /* \"#utility.yul\":9989:9992   */\n      dup3\n        /* \"#utility.yul\":9985:9999   */\n      add\n        /* \"#utility.yul\":9970:9999   */\n      swap1\n      pop\n        /* \"#utility.yul\":9836:10005   */\n      swap3\n      swap2\n      pop\n      pop\n      jump\t// out\n        /* \"#utility.yul\":10011:10316   */\n    tag_122:\n        /* \"#utility.yul\":10051:10054   */\n      0x00\n        /* \"#utility.yul\":10070:10090   */\n      tag_270\n        /* \"#utility.yul\":10088:10089   */\n      dup3\n        /* \"#utility.yul\":10070:10090   */\n      tag_236\n      jump\t// in\n    tag_270:\n        /* \"#utility.yul\":10065:10090   */\n      swap2\n      pop\n        /* \"#utility.yul\":10104:10124   */\n      tag_271\n        /* \"#utility.yul\":10122:10123   */\n      dup4\n        /* \"#utility.yul\":10104:10124   */\n      tag_236\n      jump\t// in\n    tag_271:\n        /* \"#utility.yul\":10099:10124   */\n      swap3\n      pop\n        /* \"#utility.yul\":10258:10259   */\n      dup3\n        /* \"#utility.yul\":10190:10256   */\n      0xffffffffffffffffffffffffffffffffffffffffffffffffffffffffffffffff\n        /* \"#utility.yul\":10186:10260   */\n      sub\n        /* \"#utility.yul\":10183:10184   */\n      dup3\n        /* \"#utility.yul\":10180:10261   */\n      gt\n        /* \"#utility.yul\":10177:10284   */\n      iszero\n      tag_272\n      jumpi\n        /* \"#utility.yul\":10264:10282   */\n      tag_273\n      tag_274\n      jump\t// in\n    tag_273:\n        /* \"#utility.yul\":10177:10284   */\n    tag_272:\n        /* \"#utility.yul\":10308:10309   */\n      dup3\n        /* \"#utility.yul\":10305:10306   */\n      dup3\n        /* \"#utility.yul\":10301:10310   */\n      add\n        /* \"#utility.yul\":10294:10310   */\n      swap1\n      pop\n        /* \"#utility.yul\":10011:10316   */\n      swap3\n      swap2\n      pop\n      pop\n      jump\t// out\n        /* \"#utility.yul\":10322:10418   */\n    tag_275:\n        /* \"#utility.yul\":10359:10366   */\n      0x00\n        /* \"#utility.yul\":10388:10412   */\n      tag_277\n        /* \"#utility.yul\":10406:10411   */\n      dup3\n        /* \"#utility.yul\":10388:10412   */\n      tag_278\n      jump\t// in\n    tag_277:\n        /* \"#utility.yul\":10377:10412   */\n      swap1\n      pop\n        /* \"#utility.yul\":10322:10418   */\n      swap2\n      swap1\n      pop\n      jump\t// out\n        /* \"#utility.yul\":10424:10528   */\n    tag_198:\n        /* \"#utility.yul\":10469:10476   */\n      0x00\n        /* \"#utility.yul\":10498:10522   */\n      tag_280\n        /* \"#utility.yul\":10516:10521   */\n      dup3\n        /* \"#utility.yul\":10498:10522   */\n      tag_278\n      jump\t// in\n    tag_280:\n        /* \"#utility.yul\":10487:10522   */\n      swap1\n      pop\n        /* \"#utility.yul\":10424:10528   */\n      swap2\n      swap1\n      pop\n      jump\t// out\n        /* \"#utility.yul\":10534:10624   */\n    tag_202:\n        /* \"#utility.yul\":10568:10575   */\n      0x00\n        /* \"#utility.yul\":10611:10616   */\n      dup2\n        /* \"#utility.yul\":10604:10617   */\n      iszero\n        /* \"#utility.yul\":10597:10618   */\n      iszero\n        /* \"#utility.yul\":10586:10618   */\n      swap1\n      pop\n        /* \"#utility.yul\":10534:10624   */\n      swap2\n      swap1\n      pop\n      jump\t// out\n        /* \"#utility.yul\":10630:10756   */\n    tag_278:\n        /* \"#utility.yul\":10667:10674   */\n      0x00\n        /* \"#utility.yul\":10707:10749   */\n      0xffffffffffffffffffffffffffffffffffffffff\n        /* \"#utility.yul\":10700:10705   */\n      dup3\n        /* \"#utility.yul\":10696:10750   */\n      and\n        /* \"#utility.yul\":10685:10750   */\n      swap1\n      pop\n        /* \"#utility.yul\":10630:10756   */\n      swap2\n      swap1\n      pop\n      jump\t// out\n        /* \"#utility.yul\":10762:10839   */\n    tag_236:\n        /* \"#utility.yul\":10799:10806   */\n      0x00\n        /* \"#utility.yul\":10828:10833   */\n      dup2\n        /* \"#utility.yul\":10817:10833   */\n      swap1\n      pop\n        /* \"#utility.yul\":10762:10839   */\n      swap2\n      swap1\n      pop\n      jump\t// out\n        /* \"#utility.yul\":10845:10999   */\n    tag_145:\n        /* \"#utility.yul\":10929:10935   */\n      dup3\n        /* \"#utility.yul\":10924:10927   */\n      dup2\n        /* \"#utility.yul\":10919:10922   */\n      dup4\n        /* \"#utility.yul\":10906:10936   */\n      calldatacopy\n        /* \"#utility.yul\":10991:10992   */\n      0x00\n        /* \"#utility.yul\":10982:10988   */\n      dup4\n        /* \"#utility.yul\":10977:10980   */\n      dup4\n        /* \"#utility.yul\":10973:10989   */\n      add\n        /* \"#utility.yul\":10966:10993   */\n      mstore\n        /* \"#utility.yul\":10845:10999   */\n      pop\n      pop\n      pop\n      jump\t// out\n        /* \"#utility.yul\":11005:11312   */\n    tag_210:\n        /* \"#utility.yul\":11073:11074   */\n      0x00\n        /* \"#utility.yul\":11083:11196   */\n    tag_286:\n        /* \"#utility.yul\":11097:11103   */\n      dup4\n        /* \"#utility.yul\":11094:11095   */\n      dup2\n        /* \"#utility.yul\":11091:11104   */\n      lt\n        /* \"#utility.yul\":11083:11196   */\n      iszero\n      tag_288\n      jumpi\n        /* \"#utility.yul\":11182:11183   */\n      dup1\n        /* \"#utility.yul\":11177:11180   */\n      dup3\n        /* \"#utility.yul\":11173:11184   */\n      add\n        /* \"#utility.yul\":11167:11185   */\n      mload\n        /* \"#utility.yul\":11163:11164   */\n      dup2\n        /* \"#utility.yul\":11158:11161   */\n      dup5\n        /* \"#utility.yul\":11154:11165   */\n      add\n        /* \"#utility.yul\":11147:11186   */\n      mstore\n        /* \"#utility.yul\":11119:11121   */\n      0x20\n        /* \"#utility.yul\":11116:11117   */\n      dup2\n        /* \"#utility.yul\":11112:11122   */\n      add\n        /* \"#utility.yul\":11107:11122   */\n      swap1\n      pop\n        /* \"#utility.yul\":11083:11196   */\n      jump(tag_286)\n    tag_288:\n        /* \"#utility.yul\":11214:11220   */\n      dup4\n        /* \"#utility.yul\":11211:11212   */\n      dup2\n        /* \"#utility.yul\":11208:11221   */\n      gt\n        /* \"#utility.yul\":11205:11306   */\n      iszero\n      tag_289\n      jumpi\n        /* \"#utility.yul\":11294:11295   */\n      0x00\n        /* \"#utility.yul\":11285:11291   */\n      dup5\n        /* \"#utility.yul\":11280:11283   */\n      dup5\n        /* \"#utility.yul\":11276:11292   */\n      add\n        /* \"#utility.yul\":11269:11296   */\n      mstore\n        /* \"#utility.yul\":11205:11306   */\n    tag_289:\n        /* \"#utility.yul\":11054:11312   */\n      pop\n        /* \"#utility.yul\":11005:11312   */\n      pop\n      pop\n      pop\n      jump\t// out\n        /* \"#utility.yul\":11318:11638   */\n    tag_74:\n        /* \"#utility.yul\":11362:11368   */\n      0x00\n        /* \"#utility.yul\":11399:11400   */\n      0x02\n        /* \"#utility.yul\":11393:11397   */\n      dup3\n        /* \"#utility.yul\":11389:11401   */\n      div\n        /* \"#utility.yul\":11379:11401   */\n      swap1\n      pop\n        /* \"#utility.yul\":11446:11447   */\n      0x01\n        /* \"#utility.yul\":11440:11444   */\n      dup3\n        /* \"#utility.yul\":11436:11448   */\n      and\n        /* \"#utility.yul\":11467:11485   */\n      dup1\n        /* \"#utility.yul\":11457:11538   */\n      tag_291\n      jumpi\n        /* \"#utility.yul\":11523:11527   */\n      0x7f\n        /* \"#utility.yul\":11515:11521   */\n      dup3\n        /* \"#utility.yul\":11511:11528   */\n      and\n        /* \"#utility.yul\":11501:11528   */\n      swap2\n      pop\n        /* \"#utility.yul\":11457:11538   */\n    tag_291:\n        /* \"#utility.yul\":11585:11587   */\n      0x20\n        /* \"#utility.yul\":11577:11583   */\n      dup3\n        /* \"#utility.yul\":11574:11588   */\n      lt\n        /* \"#utility.yul\":11554:11572   */\n      dup2\n        /* \"#utility.yul\":11551:11589   */\n      eq\n        /* \"#utility.yul\":11548:11632   */\n      iszero\n      tag_292\n      jumpi\n        /* \"#utility.yul\":11604:11622   */\n      tag_293\n      tag_294\n      jump\t// in\n    tag_293:\n        /* \"#utility.yul\":11548:11632   */\n    tag_292:\n        /* \"#utility.yul\":11369:11638   */\n      pop\n        /* \"#utility.yul\":11318:11638   */\n      swap2\n      swap1\n      pop\n      jump\t// out\n        /* \"#utility.yul\":11644:11925   */\n    tag_260:\n        /* \"#utility.yul\":11727:11754   */\n      tag_296\n        /* \"#utility.yul\":11749:11753   */\n      dup3\n        /* \"#utility.yul\":11727:11754   */\n      tag_212\n      jump\t// in\n    tag_296:\n        /* \"#utility.yul\":11719:11725   */\n      dup2\n        /* \"#utility.yul\":11715:11755   */\n      add\n        /* \"#utility.yul\":11857:11863   */\n      dup2\n        /* \"#utility.yul\":11845:11855   */\n      dup2\n        /* \"#utility.yul\":11842:11864   */\n      lt\n        /* \"#utility.yul\":11821:11839   */\n      0xffffffffffffffff\n        /* \"#utility.yul\":11809:11819   */\n      dup3\n        /* \"#utility.yul\":11806:11840   */\n      gt\n        /* \"#utility.yul\":11803:11865   */\n      or\n        /* \"#utility.yul\":11800:11888   */\n      iszero\n      tag_297\n      jumpi\n        /* \"#utility.yul\":11868:11886   */\n      tag_298\n      tag_265\n      jump\t// in\n    tag_298:\n        /* \"#utility.yul\":11800:11888   */\n    tag_297:\n        /* \"#utility.yul\":11908:11918   */\n      dup1\n        /* \"#utility.yul\":11904:11906   */\n      0x40\n        /* \"#utility.yul\":11897:11919   */\n      mstore\n        /* \"#utility.yul\":11687:11925   */\n      pop\n        /* \"#utility.yul\":11644:11925   */\n      pop\n      pop\n      jump\t// out\n        /* \"#utility.yul\":11931:12164   */\n    tag_113:\n        /* \"#utility.yul\":11970:11973   */\n      0x00\n        /* \"#utility.yul\":11993:12017   */\n      tag_300\n        /* \"#utility.yul\":12011:12016   */\n      dup3\n        /* \"#utility.yul\":11993:12017   */\n      tag_236\n      jump\t// in\n    tag_300:\n        /* \"#utility.yul\":11984:12017   */\n      swap2\n      pop\n        /* \"#utility.yul\":12039:12105   */\n      0xffffffffffffffffffffffffffffffffffffffffffffffffffffffffffffffff\n        /* \"#utility.yul\":12032:12037   */\n      dup3\n        /* \"#utility.yul\":12029:12106   */\n      eq\n        /* \"#utility.yul\":12026:12129   */\n      iszero\n      tag_301\n      jumpi\n        /* \"#utility.yul\":12109:12127   */\n      tag_302\n      tag_274\n      jump\t// in\n    tag_302:\n        /* \"#utility.yul\":12026:12129   */\n    tag_301:\n        /* \"#utility.yul\":12156:12157   */\n      0x01\n        /* \"#utility.yul\":12149:12154   */\n      dup3\n        /* \"#utility.yul\":12145:12158   */\n      add\n        /* \"#utility.yul\":12138:12158   */\n      swap1\n      pop\n        /* \"#utility.yul\":11931:12164   */\n      swap2\n      swap1\n      pop\n      jump\t// out\n        /* \"#utility.yul\":12170:12350   */\n    tag_274:\n        /* \"#utility.yul\":12218:12295   */\n      0x4e487b7100000000000000000000000000000000000000000000000000000000\n        /* \"#utility.yul\":12215:12216   */\n      0x00\n        /* \"#utility.yul\":12208:12296   */\n      mstore\n        /* \"#utility.yul\":12315:12319   */\n      0x11\n        /* \"#utility.yul\":12312:12313   */\n      0x04\n        /* \"#utility.yul\":12305:12320   */\n      mstore\n        /* \"#utility.yul\":12339:12343   */\n      0x24\n        /* \"#utility.yul\":12336:12337   */\n      0x00\n        /* \"#utility.yul\":12329:12344   */\n      revert\n        /* \"#utility.yul\":12356:12536   */\n    tag_294:\n        /* \"#utility.yul\":12404:12481   */\n      0x4e487b7100000000000000000000000000000000000000000000000000000000\n        /* \"#utility.yul\":12401:12402   */\n      0x00\n        /* \"#utility.yul\":12394:12482   */\n      mstore\n        /* \"#utility.yul\":12501:12505   */\n      0x22\n        /* \"#utility.yul\":12498:12499   */\n      0x04\n        /* \"#utility.yul\":12491:12506   */\n      mstore\n        /* \"#utility.yul\":12525:12529   */\n      0x24\n        /* \"#utility.yul\":12522:12523   */\n      0x00\n        /* \"#utility.yul\":12515:12530   */\n      revert\n        /* \"#utility.yul\":12542:12722   */\n    tag_52:\n        /* \"#utility.yul\":12590:12667   */\n      0x4e487b7100000000000000000000000000000000000000000000000000000000\n        /* \"#utility.yul\":12587:12588   */\n      0x00\n        /* \"#utility.yul\":12580:12668   */\n      mstore\n        /* \"#utility.yul\":12687:12691   */\n      0x32\n        /* \"#utility.yul\":12684:12685   */\n      0x04\n        /* \"#utility.yul\":12677:12692   */\n      mstore\n        /* \"#utility.yul\":12711:12715   */\n      0x24\n        /* \"#utility.yul\":12708:12709   */\n      0x00\n        /* \"#utility.yul\":12701:12716   */\n      revert\n        /* \"#utility.yul\":12728:12908   */\n    tag_265:\n        /* \"#utility.yul\":12776:12853   */\n      0x4e487b7100000000000000000000000000000000000000000000000000000000\n        /* \"#utility.yul\":12773:12774   */\n      0x00\n        /* \"#utility.yul\":12766:12854   */\n      mstore\n        /* \"#utility.yul\":12873:12877   */\n      0x41\n        /* \"#utility.yul\":12870:12871   */\n      0x04\n        /* \"#utility.yul\":12863:12878   */\n      mstore\n        /* \"#utility.yul\":12897:12901   */\n      0x24\n        /* \"#utility.yul\":12894:12895   */\n      0x00\n        /* \"#utility.yul\":12887:12902   */\n      revert\n        /* \"#utility.yul\":12914:13031   */\n    tag_162:\n        /* \"#utility.yul\":13023:13024   */\n      0x00\n        /* \"#utility.yul\":13020:13021   */\n      dup1\n        /* \"#utility.yul\":13013:13025   */\n      revert\n        /* \"#utility.yul\":13037:13154   */\n    tag_143:\n        /* \"#utility.yul\":13146:13147   */\n      0x00\n        /* \"#utility.yul\":13143:13144   */\n      dup1\n        /* \"#utility.yul\":13136:13148   */\n      revert\n        /* \"#utility.yul\":13160:13277   */\n    tag_183:\n        /* \"#utility.yul\":13269:13270   */\n      0x00\n        /* \"#utility.yul\":13266:13267   */\n      dup1\n        /* \"#utility.yul\":13259:13271   */\n      revert\n        /* \"#utility.yul\":13283:13400   */\n    tag_171:\n        /* \"#utility.yul\":13392:13393   */\n      0x00\n        /* \"#utility.yul\":13389:13390   */\n      dup1\n        /* \"#utility.yul\":13382:13394   */\n      revert\n        /* \"#utility.yul\":13406:13508   */\n    tag_212:\n        /* \"#utility.yul\":13447:13453   */\n      0x00\n        /* \"#utility.yul\":13498:13500   */\n      0x1f\n        /* \"#utility.yul\":13494:13501   */\n      not\n        /* \"#utility.yul\":13489:13491   */\n      0x1f\n        /* \"#utility.yul\":13482:13487   */\n      dup4\n        /* \"#utility.yul\":13478:13492   */\n      add\n        /* \"#utility.yul\":13474:13502   */\n      and\n        /* \"#utility.yul\":13464:13502   */\n      swap1\n      pop\n        /* \"#utility.yul\":13406:13508   */\n      swap2\n      swap1\n      pop\n      jump\t// out\n        /* \"#utility.yul\":13514:13696   */\n    tag_217:\n        /* \"#utility.yul\":13654:13688   */\n      0x796f7520617265206e6f742061626c6520746f20776974686472617720796574\n        /* \"#utility.yul\":13650:13651   */\n      0x00\n        /* \"#utility.yul\":13642:13648   */\n      dup3\n        /* \"#utility.yul\":13638:13652   */\n      add\n        /* \"#utility.yul\":13631:13689   */\n      mstore\n        /* \"#utility.yul\":13514:13696   */\n      pop\n      jump\t// out\n        /* \"#utility.yul\":13702:13875   */\n    tag_222:\n        /* \"#utility.yul\":13842:13867   */\n      0x596f752063616e6e6f7420776974686472617720796574000000000000000000\n        /* \"#utility.yul\":13838:13839   */\n      0x00\n        /* \"#utility.yul\":13830:13836   */\n      dup3\n        /* \"#utility.yul\":13826:13840   */\n      add\n        /* \"#utility.yul\":13819:13868   */\n      mstore\n        /* \"#utility.yul\":13702:13875   */\n      pop\n      jump\t// out\n        /* \"#utility.yul\":13881:14107   */\n    tag_227:\n        /* \"#utility.yul\":14021:14055   */\n      0x596f75206d757374206265207468652062656e696669636961727920746f2077\n        /* \"#utility.yul\":14017:14018   */\n      0x00\n        /* \"#utility.yul\":14009:14015   */\n      dup3\n        /* \"#utility.yul\":14005:14019   */\n      add\n        /* \"#utility.yul\":13998:14056   */\n      mstore\n        /* \"#utility.yul\":14090:14099   */\n      0x6974686472617700000000000000000000000000000000000000000000000000\n        /* \"#utility.yul\":14085:14087   */\n      0x20\n        /* \"#utility.yul\":14077:14083   */\n      dup3\n        /* \"#utility.yul\":14073:14088   */\n      add\n        /* \"#utility.yul\":14066:14100   */\n      mstore\n        /* \"#utility.yul\":13881:14107   */\n      pop\n      jump\t// out\n        /* \"#utility.yul\":14113:14335   */\n    tag_232:\n        /* \"#utility.yul\":14253:14287   */\n      0x6f6e6c7920746865206f776e65722063616e206164642062656e696669636972\n        /* \"#utility.yul\":14249:14250   */\n      0x00\n        /* \"#utility.yul\":14241:14247   */\n      dup3\n        /* \"#utility.yul\":14237:14251   */\n      add\n        /* \"#utility.yul\":14230:14288   */\n      mstore\n        /* \"#utility.yul\":14322:14327   */\n      0x6965730000000000000000000000000000000000000000000000000000000000\n        /* \"#utility.yul\":14317:14319   */\n      0x20\n        /* \"#utility.yul\":14309:14315   */\n      dup3\n        /* \"#utility.yul\":14305:14320   */\n      add\n        /* \"#utility.yul\":14298:14328   */\n      mstore\n        /* \"#utility.yul\":14113:14335   */\n      pop\n      jump\t// out\n        /* \"#utility.yul\":14341:14463   */\n    tag_149:\n        /* \"#utility.yul\":14414:14438   */\n      tag_317\n        /* \"#utility.yul\":14432:14437   */\n      dup2\n        /* \"#utility.yul\":14414:14438   */\n      tag_275\n      jump\t// in\n    tag_317:\n        /* \"#utility.yul\":14407:14412   */\n      dup2\n        /* \"#utility.yul\":14404:14439   */\n      eq\n        /* \"#utility.yul\":14394:14457   */\n      tag_318\n      jumpi\n        /* \"#utility.yul\":14453:14454   */\n      0x00\n        /* \"#utility.yul\":14450:14451   */\n      dup1\n        /* \"#utility.yul\":14443:14455   */\n      revert\n        /* \"#utility.yul\":14394:14457   */\n    tag_318:\n        /* \"#utility.yul\":14341:14463   */\n      pop\n      jump\t// out\n        /* \"#utility.yul\":14469:14607   */\n    tag_153:\n        /* \"#utility.yul\":14550:14582   */\n      tag_320\n        /* \"#utility.yul\":14576:14581   */\n      dup2\n        /* \"#utility.yul\":14550:14582   */\n      tag_198\n      jump\t// in\n    tag_320:\n        /* \"#utility.yul\":14543:14548   */\n      dup2\n        /* \"#utility.yul\":14540:14583   */\n      eq\n        /* \"#utility.yul\":14530:14601   */\n      tag_321\n      jumpi\n        /* \"#utility.yul\":14597:14598   */\n      0x00\n        /* \"#utility.yul\":14594:14595   */\n      dup1\n        /* \"#utility.yul\":14587:14599   */\n      revert\n        /* \"#utility.yul\":14530:14601   */\n    tag_321:\n        /* \"#utility.yul\":14469:14607   */\n      pop\n      jump\t// out\n        /* \"#utility.yul\":14613:14729   */\n    tag_157:\n        /* \"#utility.yul\":14683:14704   */\n      tag_323\n        /* \"#utility.yul\":14698:14703   */\n      dup2\n        /* \"#utility.yul\":14683:14704   */\n      tag_202\n      jump\t// in\n    tag_323:\n        /* \"#utility.yul\":14676:14681   */\n      dup2\n        /* \"#utility.yul\":14673:14705   */\n      eq\n        /* \"#utility.yul\":14663:14723   */\n      tag_324\n      jumpi\n        /* \"#utility.yul\":14719:14720   */\n      0x00\n        /* \"#utility.yul\":14716:14717   */\n      dup1\n        /* \"#utility.yul\":14709:14721   */\n      revert\n        /* \"#utility.yul\":14663:14723   */\n    tag_324:\n        /* \"#utility.yul\":14613:14729   */\n      pop\n      jump\t// out\n        /* \"#utility.yul\":14735:14857   */\n    tag_167:\n        /* \"#utility.yul\":14808:14832   */\n      tag_326\n        /* \"#utility.yul\":14826:14831   */\n      dup2\n        /* \"#utility.yul\":14808:14832   */\n      tag_236\n      jump\t// in\n    tag_326:\n        /* \"#utility.yul\":14801:14806   */\n      dup2\n        /* \"#utility.yul\":14798:14833   */\n      eq\n        /* \"#utility.yul\":14788:14851   */\n      tag_327\n      jumpi\n        /* \"#utility.yul\":14847:14848   */\n      0x00\n        /* \"#utility.yul\":14844:14845   */\n      dup1\n        /* \"#utility.yul\":14837:14849   */\n      revert\n        /* \"#utility.yul\":14788:14851   */\n    tag_327:\n        /* \"#utility.yul\":14735:14857   */\n      pop\n      jump\t// out\n\n    auxdata: 0xa2646970667358221220c51918500db28549629231e8574783412316fd0f3e011384ac5ef6f7db154bac64736f6c63430008070033\n}\n",
				"bytecode": {
					"linkReferences": {},
					"object": "608060405234801561001057600080fd5b50336000806101000a81548173ffffffffffffffffffffffffffffffffffffffff021916908373ffffffffffffffffffffffffffffffffffffffff1602179055506111f7806100606000396000f3fe6080604052600436106100555760003560e01c8063303edf181461005a57806351cff8d9146100835780635fded4771461009f578063722713f7146100e1578063a25db8ce1461010c578063f340fa0114610149575b600080fd5b34801561006657600080fd5b50610081600480360381019061007c9190610a7b565b610165565b005b61009d60048036038101906100989190610a4e565b610322565b005b3480156100ab57600080fd5b506100c660048036038101906100c19190610b40565b610510565b6040516100d896959493929190610c5f565b60405180910390f35b3480156100ed57600080fd5b506100f6610699565b6040516101039190610d69565b60405180910390f35b34801561011857600080fd5b50610133600480360381019061012e9190610a21565b6106a1565b6040516101409190610cce565b60405180910390f35b610163600480360381019061015e9190610a21565b610795565b005b60008054906101000a900473ffffffffffffffffffffffffffffffffffffffff1673ffffffffffffffffffffffffffffffffffffffff163373ffffffffffffffffffffffffffffffffffffffff16146101f3576040517f08c379a00000000000000000000000000000000000000000000000000000000081526004016101ea90610d49565b60405180910390fd5b60016040518060c001604052808873ffffffffffffffffffffffffffffffffffffffff168152602001878152602001868152602001858152602001848152602001831515815250908060018154018082558091505060019003906000526020600020906006020160009091909190915060008201518160000160006101000a81548173ffffffffffffffffffffffffffffffffffffffff021916908373ffffffffffffffffffffffffffffffffffffffff16021790555060208201518160010190805190602001906102c69291906108ba565b5060408201518160020190805190602001906102e39291906108ba565b50606082015181600301556080820151816004015560a08201518160050160006101000a81548160ff0219169083151502179055505050505050505050565b600061032d826107a1565b90506001818154811061034357610342610ff2565b5b906000526020600020906006020160000160009054906101000a900473ffffffffffffffffffffffffffffffffffffffff1673ffffffffffffffffffffffffffffffffffffffff163373ffffffffffffffffffffffffffffffffffffffff16146103e2576040517f08c379a00000000000000000000000000000000000000000000000000000000081526004016103d990610d29565b60405180910390fd5b60011515600182815481106103fa576103f9610ff2565b5b906000526020600020906006020160050160009054906101000a900460ff1615151461045b576040517f08c379a000000000000000000000000000000000000000000000000000000000815260040161045290610ce9565b60405180910390fd5b6001818154811061046f5761046e610ff2565b5b906000526020600020906006020160000160009054906101000a900473ffffffffffffffffffffffffffffffffffffffff1673ffffffffffffffffffffffffffffffffffffffff166108fc600183815481106104ce576104cd610ff2565b5b9060005260206000209060060201600401549081150290604051600060405180830381858888f1935050505015801561050b573d6000803e3d6000fd5b505050565b6001818154811061052057600080fd5b90600052602060002090600602016000915090508060000160009054906101000a900473ffffffffffffffffffffffffffffffffffffffff169080600101805461056990610ee8565b80601f016020809104026020016040519081016040528092919081815260200182805461059590610ee8565b80156105e25780601f106105b7576101008083540402835291602001916105e2565b820191906000526020600020905b8154815290600101906020018083116105c557829003601f168201915b5050505050908060020180546105f790610ee8565b80601f016020809104026020016040519081016040528092919081815260200182805461062390610ee8565b80156106705780601f1061064557610100808354040283529160200191610670565b820191906000526020600020905b81548152906001019060200180831161065357829003601f168201915b5050505050908060030154908060040154908060050160009054906101000a900460ff16905086565b600047905090565b6000806106ad836107a1565b9050600181815481106106c3576106c2610ff2565b5b9060005260206000209060060201600301544211610716576040517f08c379a000000000000000000000000000000000000000000000000000000000815260040161070d90610d09565b60405180910390fd5b6001818154811061072a57610729610ff2565b5b90600052602060002090600602016003015442111561078a57600180828154811061075857610757610ff2565b5b906000526020600020906006020160050160006101000a81548160ff0219169083151502179055506001915050610790565b60009150505b919050565b61079e81610857565b50565b600080600090505b60018054905081101561084b578273ffffffffffffffffffffffffffffffffffffffff16600182815481106107e1576107e0610ff2565b5b906000526020600020906006020160000160009054906101000a900473ffffffffffffffffffffffffffffffffffffffff1673ffffffffffffffffffffffffffffffffffffffff1614156108385780915050610852565b808061084390610f4b565b9150506107a9565b506103e790505b919050565b60005b6001805490508110156108b657346001828154811061087c5761087b610ff2565b5b9060005260206000209060060201600401600082825461089c9190610df6565b9250508190555080806108ae90610f4b565b91505061085a565b5050565b8280546108c690610ee8565b90600052602060002090601f0160209004810192826108e8576000855561092f565b82601f1061090157805160ff191683800117855561092f565b8280016001018555821561092f579182015b8281111561092e578251825591602001919060010190610913565b5b50905061093c9190610940565b5090565b5b80821115610959576000816000905550600101610941565b5090565b600061097061096b84610da9565b610d84565b90508281526020810184848401111561098c5761098b611055565b5b610997848285610ea6565b509392505050565b6000813590506109ae81611165565b92915050565b6000813590506109c38161117c565b92915050565b6000813590506109d881611193565b92915050565b600082601f8301126109f3576109f2611050565b5b8135610a0384826020860161095d565b91505092915050565b600081359050610a1b816111aa565b92915050565b600060208284031215610a3757610a3661105f565b5b6000610a458482850161099f565b91505092915050565b600060208284031215610a6457610a6361105f565b5b6000610a72848285016109b4565b91505092915050565b60008060008060008060c08789031215610a9857610a9761105f565b5b6000610aa689828a016109b4565b965050602087013567ffffffffffffffff811115610ac757610ac661105a565b5b610ad389828a016109de565b955050604087013567ffffffffffffffff811115610af457610af361105a565b5b610b0089828a016109de565b9450506060610b1189828a01610a0c565b9350506080610b2289828a01610a0c565b92505060a0610b3389828a016109c9565b9150509295509295509295565b600060208284031215610b5657610b5561105f565b5b6000610b6484828501610a0c565b91505092915050565b610b7681610e5e565b82525050565b610b8581610e70565b82525050565b6000610b9682610dda565b610ba08185610de5565b9350610bb0818560208601610eb5565b610bb981611064565b840191505092915050565b6000610bd1602083610de5565b9150610bdc82611075565b602082019050919050565b6000610bf4601783610de5565b9150610bff8261109e565b602082019050919050565b6000610c17602783610de5565b9150610c22826110c7565b604082019050919050565b6000610c3a602383610de5565b9150610c4582611116565b604082019050919050565b610c5981610e9c565b82525050565b600060c082019050610c746000830189610b6d565b8181036020830152610c868188610b8b565b90508181036040830152610c9a8187610b8b565b9050610ca96060830186610c50565b610cb66080830185610c50565b610cc360a0830184610b7c565b979650505050505050565b6000602082019050610ce36000830184610b7c565b92915050565b60006020820190508181036000830152610d0281610bc4565b9050919050565b60006020820190508181036000830152610d2281610be7565b9050919050565b60006020820190508181036000830152610d4281610c0a565b9050919050565b60006020820190508181036000830152610d6281610c2d565b9050919050565b6000602082019050610d7e6000830184610c50565b92915050565b6000610d8e610d9f565b9050610d9a8282610f1a565b919050565b6000604051905090565b600067ffffffffffffffff821115610dc457610dc3611021565b5b610dcd82611064565b9050602081019050919050565b600081519050919050565b600082825260208201905092915050565b6000610e0182610e9c565b9150610e0c83610e9c565b9250827fffffffffffffffffffffffffffffffffffffffffffffffffffffffffffffffff03821115610e4157610e40610f94565b5b828201905092915050565b6000610e5782610e7c565b9050919050565b6000610e6982610e7c565b9050919050565b60008115159050919050565b600073ffffffffffffffffffffffffffffffffffffffff82169050919050565b6000819050919050565b82818337600083830152505050565b60005b83811015610ed3578082015181840152602081019050610eb8565b83811115610ee2576000848401525b50505050565b60006002820490506001821680610f0057607f821691505b60208210811415610f1457610f13610fc3565b5b50919050565b610f2382611064565b810181811067ffffffffffffffff82111715610f4257610f41611021565b5b80604052505050565b6000610f5682610e9c565b91507fffffffffffffffffffffffffffffffffffffffffffffffffffffffffffffffff821415610f8957610f88610f94565b5b600182019050919050565b7f4e487b7100000000000000000000000000000000000000000000000000000000600052601160045260246000fd5b7f4e487b7100000000000000000000000000000000000000000000000000000000600052602260045260246000fd5b7f4e487b7100000000000000000000000000000000000000000000000000000000600052603260045260246000fd5b7f4e487b7100000000000000000000000000000000000000000000000000000000600052604160045260246000fd5b600080fd5b600080fd5b600080fd5b600080fd5b6000601f19601f8301169050919050565b7f796f7520617265206e6f742061626c6520746f20776974686472617720796574600082015250565b7f596f752063616e6e6f7420776974686472617720796574000000000000000000600082015250565b7f596f75206d757374206265207468652062656e696669636961727920746f207760008201527f6974686472617700000000000000000000000000000000000000000000000000602082015250565b7f6f6e6c7920746865206f776e65722063616e206164642062656e69666963697260008201527f6965730000000000000000000000000000000000000000000000000000000000602082015250565b61116e81610e4c565b811461117957600080fd5b50565b61118581610e5e565b811461119057600080fd5b50565b61119c81610e70565b81146111a757600080fd5b50565b6111b381610e9c565b81146111be57600080fd5b5056fea2646970667358221220c51918500db28549629231e8574783412316fd0f3e011384ac5ef6f7db154bac64736f6c63430008070033",
					"opcodes": "PUSH1 0x80 PUSH1 0x40 MSTORE CALLVALUE DUP1 ISZERO PUSH2 0x10 JUMPI PUSH1 0x0 DUP1 REVERT JUMPDEST POP CALLER PUSH1 0x0 DUP1 PUSH2 0x100 EXP DUP2 SLOAD DUP2 PUSH20 0xFFFFFFFFFFFFFFFFFFFFFFFFFFFFFFFFFFFFFFFF MUL NOT AND SWAP1 DUP4 PUSH20 0xFFFFFFFFFFFFFFFFFFFFFFFFFFFFFFFFFFFFFFFF AND MUL OR SWAP1 SSTORE POP PUSH2 0x11F7 DUP1 PUSH2 0x60 PUSH1 0x0 CODECOPY PUSH1 0x0 RETURN INVALID PUSH1 0x80 PUSH1 0x40 MSTORE PUSH1 0x4 CALLDATASIZE LT PUSH2 0x55 JUMPI PUSH1 0x0 CALLDATALOAD PUSH1 0xE0 SHR DUP1 PUSH4 0x303EDF18 EQ PUSH2 0x5A JUMPI DUP1 PUSH4 0x51CFF8D9 EQ PUSH2 0x83 JUMPI DUP1 PUSH4 0x5FDED477 EQ PUSH2 0x9F JUMPI DUP1 PUSH4 0x722713F7 EQ PUSH2 0xE1 JUMPI DUP1 PUSH4 0xA25DB8CE EQ PUSH2 0x10C JUMPI DUP1 PUSH4 0xF340FA01 EQ PUSH2 0x149 JUMPI JUMPDEST PUSH1 0x0 DUP1 REVERT JUMPDEST CALLVALUE DUP1 ISZERO PUSH2 0x66 JUMPI PUSH1 0x0 DUP1 REVERT JUMPDEST POP PUSH2 0x81 PUSH1 0x4 DUP1 CALLDATASIZE SUB DUP2 ADD SWAP1 PUSH2 0x7C SWAP2 SWAP1 PUSH2 0xA7B JUMP JUMPDEST PUSH2 0x165 JUMP JUMPDEST STOP JUMPDEST PUSH2 0x9D PUSH1 0x4 DUP1 CALLDATASIZE SUB DUP2 ADD SWAP1 PUSH2 0x98 SWAP2 SWAP1 PUSH2 0xA4E JUMP JUMPDEST PUSH2 0x322 JUMP JUMPDEST STOP JUMPDEST CALLVALUE DUP1 ISZERO PUSH2 0xAB JUMPI PUSH1 0x0 DUP1 REVERT JUMPDEST POP PUSH2 0xC6 PUSH1 0x4 DUP1 CALLDATASIZE SUB DUP2 ADD SWAP1 PUSH2 0xC1 SWAP2 SWAP1 PUSH2 0xB40 JUMP JUMPDEST PUSH2 0x510 JUMP JUMPDEST PUSH1 0x40 MLOAD PUSH2 0xD8 SWAP7 SWAP6 SWAP5 SWAP4 SWAP3 SWAP2 SWAP1 PUSH2 0xC5F JUMP JUMPDEST PUSH1 0x40 MLOAD DUP1 SWAP2 SUB SWAP1 RETURN JUMPDEST CALLVALUE DUP1 ISZERO PUSH2 0xED JUMPI PUSH1 0x0 DUP1 REVERT JUMPDEST POP PUSH2 0xF6 PUSH2 0x699 JUMP JUMPDEST PUSH1 0x40 MLOAD PUSH2 0x103 SWAP2 SWAP1 PUSH2 0xD69 JUMP JUMPDEST PUSH1 0x40 MLOAD DUP1 SWAP2 SUB SWAP1 RETURN JUMPDEST CALLVALUE DUP1 ISZERO PUSH2 0x118 JUMPI PUSH1 0x0 DUP1 REVERT JUMPDEST POP PUSH2 0x133 PUSH1 0x4 DUP1 CALLDATASIZE SUB DUP2 ADD SWAP1 PUSH2 0x12E SWAP2 SWAP1 PUSH2 0xA21 JUMP JUMPDEST PUSH2 0x6A1 JUMP JUMPDEST PUSH1 0x40 MLOAD PUSH2 0x140 SWAP2 SWAP1 PUSH2 0xCCE JUMP JUMPDEST PUSH1 0x40 MLOAD DUP1 SWAP2 SUB SWAP1 RETURN JUMPDEST PUSH2 0x163 PUSH1 0x4 DUP1 CALLDATASIZE SUB DUP2 ADD SWAP1 PUSH2 0x15E SWAP2 SWAP1 PUSH2 0xA21 JUMP JUMPDEST PUSH2 0x795 JUMP JUMPDEST STOP JUMPDEST PUSH1 0x0 DUP1 SLOAD SWAP1 PUSH2 0x100 EXP SWAP1 DIV PUSH20 0xFFFFFFFFFFFFFFFFFFFFFFFFFFFFFFFFFFFFFFFF AND PUSH20 0xFFFFFFFFFFFFFFFFFFFFFFFFFFFFFFFFFFFFFFFF AND CALLER PUSH20 0xFFFFFFFFFFFFFFFFFFFFFFFFFFFFFFFFFFFFFFFF AND EQ PUSH2 0x1F3 JUMPI PUSH1 0x40 MLOAD PUSH32 0x8C379A000000000000000000000000000000000000000000000000000000000 DUP2 MSTORE PUSH1 0x4 ADD PUSH2 0x1EA SWAP1 PUSH2 0xD49 JUMP JUMPDEST PUSH1 0x40 MLOAD DUP1 SWAP2 SUB SWAP1 REVERT JUMPDEST PUSH1 0x1 PUSH1 0x40 MLOAD DUP1 PUSH1 0xC0 ADD PUSH1 0x40 MSTORE DUP1 DUP9 PUSH20 0xFFFFFFFFFFFFFFFFFFFFFFFFFFFFFFFFFFFFFFFF AND DUP2 MSTORE PUSH1 0x20 ADD DUP8 DUP2 MSTORE PUSH1 0x20 ADD DUP7 DUP2 MSTORE PUSH1 0x20 ADD DUP6 DUP2 MSTORE PUSH1 0x20 ADD DUP5 DUP2 MSTORE PUSH1 0x20 ADD DUP4 ISZERO ISZERO DUP2 MSTORE POP SWAP1 DUP1 PUSH1 0x1 DUP2 SLOAD ADD DUP1 DUP3 SSTORE DUP1 SWAP2 POP POP PUSH1 0x1 SWAP1 SUB SWAP1 PUSH1 0x0 MSTORE PUSH1 0x20 PUSH1 0x0 KECCAK256 SWAP1 PUSH1 0x6 MUL ADD PUSH1 0x0 SWAP1 SWAP2 SWAP1 SWAP2 SWAP1 SWAP2 POP PUSH1 0x0 DUP3 ADD MLOAD DUP2 PUSH1 0x0 ADD PUSH1 0x0 PUSH2 0x100 EXP DUP2 SLOAD DUP2 PUSH20 0xFFFFFFFFFFFFFFFFFFFFFFFFFFFFFFFFFFFFFFFF MUL NOT AND SWAP1 DUP4 PUSH20 0xFFFFFFFFFFFFFFFFFFFFFFFFFFFFFFFFFFFFFFFF AND MUL OR SWAP1 SSTORE POP PUSH1 0x20 DUP3 ADD MLOAD DUP2 PUSH1 0x1 ADD SWAP1 DUP1 MLOAD SWAP1 PUSH1 0x20 ADD SWAP1 PUSH2 0x2C6 SWAP3 SWAP2 SWAP1 PUSH2 0x8BA JUMP JUMPDEST POP PUSH1 0x40 DUP3 ADD MLOAD DUP2 PUSH1 0x2 ADD SWAP1 DUP1 MLOAD SWAP1 PUSH1 0x20 ADD SWAP1 PUSH2 0x2E3 SWAP3 SWAP2 SWAP1 PUSH2 0x8BA JUMP JUMPDEST POP PUSH1 0x60 DUP3 ADD MLOAD DUP2 PUSH1 0x3 ADD SSTORE PUSH1 0x80 DUP3 ADD MLOAD DUP2 PUSH1 0x4 ADD SSTORE PUSH1 0xA0 DUP3 ADD MLOAD DUP2 PUSH1 0x5 ADD PUSH1 0x0 PUSH2 0x100 EXP DUP2 SLOAD DUP2 PUSH1 0xFF MUL NOT AND SWAP1 DUP4 ISZERO ISZERO MUL OR SWAP1 SSTORE POP POP POP POP POP POP POP POP POP JUMP JUMPDEST PUSH1 0x0 PUSH2 0x32D DUP3 PUSH2 0x7A1 JUMP JUMPDEST SWAP1 POP PUSH1 0x1 DUP2 DUP2 SLOAD DUP2 LT PUSH2 0x343 JUMPI PUSH2 0x342 PUSH2 0xFF2 JUMP JUMPDEST JUMPDEST SWAP1 PUSH1 0x0 MSTORE PUSH1 0x20 PUSH1 0x0 KECCAK256 SWAP1 PUSH1 0x6 MUL ADD PUSH1 0x0 ADD PUSH1 0x0 SWAP1 SLOAD SWAP1 PUSH2 0x100 EXP SWAP1 DIV PUSH20 0xFFFFFFFFFFFFFFFFFFFFFFFFFFFFFFFFFFFFFFFF AND PUSH20 0xFFFFFFFFFFFFFFFFFFFFFFFFFFFFFFFFFFFFFFFF AND CALLER PUSH20 0xFFFFFFFFFFFFFFFFFFFFFFFFFFFFFFFFFFFFFFFF AND EQ PUSH2 0x3E2 JUMPI PUSH1 0x40 MLOAD PUSH32 0x8C379A000000000000000000000000000000000000000000000000000000000 DUP2 MSTORE PUSH1 0x4 ADD PUSH2 0x3D9 SWAP1 PUSH2 0xD29 JUMP JUMPDEST PUSH1 0x40 MLOAD DUP1 SWAP2 SUB SWAP1 REVERT JUMPDEST PUSH1 0x1 ISZERO ISZERO PUSH1 0x1 DUP3 DUP2 SLOAD DUP2 LT PUSH2 0x3FA JUMPI PUSH2 0x3F9 PUSH2 0xFF2 JUMP JUMPDEST JUMPDEST SWAP1 PUSH1 0x0 MSTORE PUSH1 0x20 PUSH1 0x0 KECCAK256 SWAP1 PUSH1 0x6 MUL ADD PUSH1 0x5 ADD PUSH1 0x0 SWAP1 SLOAD SWAP1 PUSH2 0x100 EXP SWAP1 DIV PUSH1 0xFF AND ISZERO ISZERO EQ PUSH2 0x45B JUMPI PUSH1 0x40 MLOAD PUSH32 0x8C379A000000000000000000000000000000000000000000000000000000000 DUP2 MSTORE PUSH1 0x4 ADD PUSH2 0x452 SWAP1 PUSH2 0xCE9 JUMP JUMPDEST PUSH1 0x40 MLOAD DUP1 SWAP2 SUB SWAP1 REVERT JUMPDEST PUSH1 0x1 DUP2 DUP2 SLOAD DUP2 LT PUSH2 0x46F JUMPI PUSH2 0x46E PUSH2 0xFF2 JUMP JUMPDEST JUMPDEST SWAP1 PUSH1 0x0 MSTORE PUSH1 0x20 PUSH1 0x0 KECCAK256 SWAP1 PUSH1 0x6 MUL ADD PUSH1 0x0 ADD PUSH1 0x0 SWAP1 SLOAD SWAP1 PUSH2 0x100 EXP SWAP1 DIV PUSH20 0xFFFFFFFFFFFFFFFFFFFFFFFFFFFFFFFFFFFFFFFF AND PUSH20 0xFFFFFFFFFFFFFFFFFFFFFFFFFFFFFFFFFFFFFFFF AND PUSH2 0x8FC PUSH1 0x1 DUP4 DUP2 SLOAD DUP2 LT PUSH2 0x4CE JUMPI PUSH2 0x4CD PUSH2 0xFF2 JUMP JUMPDEST JUMPDEST SWAP1 PUSH1 0x0 MSTORE PUSH1 0x20 PUSH1 0x0 KECCAK256 SWAP1 PUSH1 0x6 MUL ADD PUSH1 0x4 ADD SLOAD SWAP1 DUP2 ISZERO MUL SWAP1 PUSH1 0x40 MLOAD PUSH1 0x0 PUSH1 0x40 MLOAD DUP1 DUP4 SUB DUP2 DUP6 DUP9 DUP9 CALL SWAP4 POP POP POP POP ISZERO DUP1 ISZERO PUSH2 0x50B JUMPI RETURNDATASIZE PUSH1 0x0 DUP1 RETURNDATACOPY RETURNDATASIZE PUSH1 0x0 REVERT JUMPDEST POP POP POP JUMP JUMPDEST PUSH1 0x1 DUP2 DUP2 SLOAD DUP2 LT PUSH2 0x520 JUMPI PUSH1 0x0 DUP1 REVERT JUMPDEST SWAP1 PUSH1 0x0 MSTORE PUSH1 0x20 PUSH1 0x0 KECCAK256 SWAP1 PUSH1 0x6 MUL ADD PUSH1 0x0 SWAP2 POP SWAP1 POP DUP1 PUSH1 0x0 ADD PUSH1 0x0 SWAP1 SLOAD SWAP1 PUSH2 0x100 EXP SWAP1 DIV PUSH20 0xFFFFFFFFFFFFFFFFFFFFFFFFFFFFFFFFFFFFFFFF AND SWAP1 DUP1 PUSH1 0x1 ADD DUP1 SLOAD PUSH2 0x569 SWAP1 PUSH2 0xEE8 JUMP JUMPDEST DUP1 PUSH1 0x1F ADD PUSH1 0x20 DUP1 SWAP2 DIV MUL PUSH1 0x20 ADD PUSH1 0x40 MLOAD SWAP1 DUP2 ADD PUSH1 0x40 MSTORE DUP1 SWAP3 SWAP2 SWAP1 DUP2 DUP2 MSTORE PUSH1 0x20 ADD DUP3 DUP1 SLOAD PUSH2 0x595 SWAP1 PUSH2 0xEE8 JUMP JUMPDEST DUP1 ISZERO PUSH2 0x5E2 JUMPI DUP1 PUSH1 0x1F LT PUSH2 0x5B7 JUMPI PUSH2 0x100 DUP1 DUP4 SLOAD DIV MUL DUP4 MSTORE SWAP2 PUSH1 0x20 ADD SWAP2 PUSH2 0x5E2 JUMP JUMPDEST DUP3 ADD SWAP2 SWAP1 PUSH1 0x0 MSTORE PUSH1 0x20 PUSH1 0x0 KECCAK256 SWAP1 JUMPDEST DUP2 SLOAD DUP2 MSTORE SWAP1 PUSH1 0x1 ADD SWAP1 PUSH1 0x20 ADD DUP1 DUP4 GT PUSH2 0x5C5 JUMPI DUP3 SWAP1 SUB PUSH1 0x1F AND DUP3 ADD SWAP2 JUMPDEST POP POP POP POP POP SWAP1 DUP1 PUSH1 0x2 ADD DUP1 SLOAD PUSH2 0x5F7 SWAP1 PUSH2 0xEE8 JUMP JUMPDEST DUP1 PUSH1 0x1F ADD PUSH1 0x20 DUP1 SWAP2 DIV MUL PUSH1 0x20 ADD PUSH1 0x40 MLOAD SWAP1 DUP2 ADD PUSH1 0x40 MSTORE DUP1 SWAP3 SWAP2 SWAP1 DUP2 DUP2 MSTORE PUSH1 0x20 ADD DUP3 DUP1 SLOAD PUSH2 0x623 SWAP1 PUSH2 0xEE8 JUMP JUMPDEST DUP1 ISZERO PUSH2 0x670 JUMPI DUP1 PUSH1 0x1F LT PUSH2 0x645 JUMPI PUSH2 0x100 DUP1 DUP4 SLOAD DIV MUL DUP4 MSTORE SWAP2 PUSH1 0x20 ADD SWAP2 PUSH2 0x670 JUMP JUMPDEST DUP3 ADD SWAP2 SWAP1 PUSH1 0x0 MSTORE PUSH1 0x20 PUSH1 0x0 KECCAK256 SWAP1 JUMPDEST DUP2 SLOAD DUP2 MSTORE SWAP1 PUSH1 0x1 ADD SWAP1 PUSH1 0x20 ADD DUP1 DUP4 GT PUSH2 0x653 JUMPI DUP3 SWAP1 SUB PUSH1 0x1F AND DUP3 ADD SWAP2 JUMPDEST POP POP POP POP POP SWAP1 DUP1 PUSH1 0x3 ADD SLOAD SWAP1 DUP1 PUSH1 0x4 ADD SLOAD SWAP1 DUP1 PUSH1 0x5 ADD PUSH1 0x0 SWAP1 SLOAD SWAP1 PUSH2 0x100 EXP SWAP1 DIV PUSH1 0xFF AND SWAP1 POP DUP7 JUMP JUMPDEST PUSH1 0x0 SELFBALANCE SWAP1 POP SWAP1 JUMP JUMPDEST PUSH1 0x0 DUP1 PUSH2 0x6AD DUP4 PUSH2 0x7A1 JUMP JUMPDEST SWAP1 POP PUSH1 0x1 DUP2 DUP2 SLOAD DUP2 LT PUSH2 0x6C3 JUMPI PUSH2 0x6C2 PUSH2 0xFF2 JUMP JUMPDEST JUMPDEST SWAP1 PUSH1 0x0 MSTORE PUSH1 0x20 PUSH1 0x0 KECCAK256 SWAP1 PUSH1 0x6 MUL ADD PUSH1 0x3 ADD SLOAD TIMESTAMP GT PUSH2 0x716 JUMPI PUSH1 0x40 MLOAD PUSH32 0x8C379A000000000000000000000000000000000000000000000000000000000 DUP2 MSTORE PUSH1 0x4 ADD PUSH2 0x70D SWAP1 PUSH2 0xD09 JUMP JUMPDEST PUSH1 0x40 MLOAD DUP1 SWAP2 SUB SWAP1 REVERT JUMPDEST PUSH1 0x1 DUP2 DUP2 SLOAD DUP2 LT PUSH2 0x72A JUMPI PUSH2 0x729 PUSH2 0xFF2 JUMP JUMPDEST JUMPDEST SWAP1 PUSH1 0x0 MSTORE PUSH1 0x20 PUSH1 0x0 KECCAK256 SWAP1 PUSH1 0x6 MUL ADD PUSH1 0x3 ADD SLOAD TIMESTAMP GT ISZERO PUSH2 0x78A JUMPI PUSH1 0x1 DUP1 DUP3 DUP2 SLOAD DUP2 LT PUSH2 0x758 JUMPI PUSH2 0x757 PUSH2 0xFF2 JUMP JUMPDEST JUMPDEST SWAP1 PUSH1 0x0 MSTORE PUSH1 0x20 PUSH1 0x0 KECCAK256 SWAP1 PUSH1 0x6 MUL ADD PUSH1 0x5 ADD PUSH1 0x0 PUSH2 0x100 EXP DUP2 SLOAD DUP2 PUSH1 0xFF MUL NOT AND SWAP1 DUP4 ISZERO ISZERO MUL OR SWAP1 SSTORE POP PUSH1 0x1 SWAP2 POP POP PUSH2 0x790 JUMP JUMPDEST PUSH1 0x0 SWAP2 POP POP JUMPDEST SWAP2 SWAP1 POP JUMP JUMPDEST PUSH2 0x79E DUP2 PUSH2 0x857 JUMP JUMPDEST POP JUMP JUMPDEST PUSH1 0x0 DUP1 PUSH1 0x0 SWAP1 POP JUMPDEST PUSH1 0x1 DUP1 SLOAD SWAP1 POP DUP2 LT ISZERO PUSH2 0x84B JUMPI DUP3 PUSH20 0xFFFFFFFFFFFFFFFFFFFFFFFFFFFFFFFFFFFFFFFF AND PUSH1 0x1 DUP3 DUP2 SLOAD DUP2 LT PUSH2 0x7E1 JUMPI PUSH2 0x7E0 PUSH2 0xFF2 JUMP JUMPDEST JUMPDEST SWAP1 PUSH1 0x0 MSTORE PUSH1 0x20 PUSH1 0x0 KECCAK256 SWAP1 PUSH1 0x6 MUL ADD PUSH1 0x0 ADD PUSH1 0x0 SWAP1 SLOAD SWAP1 PUSH2 0x100 EXP SWAP1 DIV PUSH20 0xFFFFFFFFFFFFFFFFFFFFFFFFFFFFFFFFFFFFFFFF AND PUSH20 0xFFFFFFFFFFFFFFFFFFFFFFFFFFFFFFFFFFFFFFFF AND EQ ISZERO PUSH2 0x838 JUMPI DUP1 SWAP2 POP POP PUSH2 0x852 JUMP JUMPDEST DUP1 DUP1 PUSH2 0x843 SWAP1 PUSH2 0xF4B JUMP JUMPDEST SWAP2 POP POP PUSH2 0x7A9 JUMP JUMPDEST POP PUSH2 0x3E7 SWAP1 POP JUMPDEST SWAP2 SWAP1 POP JUMP JUMPDEST PUSH1 0x0 JUMPDEST PUSH1 0x1 DUP1 SLOAD SWAP1 POP DUP2 LT ISZERO PUSH2 0x8B6 JUMPI CALLVALUE PUSH1 0x1 DUP3 DUP2 SLOAD DUP2 LT PUSH2 0x87C JUMPI PUSH2 0x87B PUSH2 0xFF2 JUMP JUMPDEST JUMPDEST SWAP1 PUSH1 0x0 MSTORE PUSH1 0x20 PUSH1 0x0 KECCAK256 SWAP1 PUSH1 0x6 MUL ADD PUSH1 0x4 ADD PUSH1 0x0 DUP3 DUP3 SLOAD PUSH2 0x89C SWAP2 SWAP1 PUSH2 0xDF6 JUMP JUMPDEST SWAP3 POP POP DUP2 SWAP1 SSTORE POP DUP1 DUP1 PUSH2 0x8AE SWAP1 PUSH2 0xF4B JUMP JUMPDEST SWAP2 POP POP PUSH2 0x85A JUMP JUMPDEST POP POP JUMP JUMPDEST DUP3 DUP1 SLOAD PUSH2 0x8C6 SWAP1 PUSH2 0xEE8 JUMP JUMPDEST SWAP1 PUSH1 0x0 MSTORE PUSH1 0x20 PUSH1 0x0 KECCAK256 SWAP1 PUSH1 0x1F ADD PUSH1 0x20 SWAP1 DIV DUP2 ADD SWAP3 DUP3 PUSH2 0x8E8 JUMPI PUSH1 0x0 DUP6 SSTORE PUSH2 0x92F JUMP JUMPDEST DUP3 PUSH1 0x1F LT PUSH2 0x901 JUMPI DUP1 MLOAD PUSH1 0xFF NOT AND DUP4 DUP1 ADD OR DUP6 SSTORE PUSH2 0x92F JUMP JUMPDEST DUP3 DUP1 ADD PUSH1 0x1 ADD DUP6 SSTORE DUP3 ISZERO PUSH2 0x92F JUMPI SWAP2 DUP3 ADD JUMPDEST DUP3 DUP2 GT ISZERO PUSH2 0x92E JUMPI DUP3 MLOAD DUP3 SSTORE SWAP2 PUSH1 0x20 ADD SWAP2 SWAP1 PUSH1 0x1 ADD SWAP1 PUSH2 0x913 JUMP JUMPDEST JUMPDEST POP SWAP1 POP PUSH2 0x93C SWAP2 SWAP1 PUSH2 0x940 JUMP JUMPDEST POP SWAP1 JUMP JUMPDEST JUMPDEST DUP1 DUP3 GT ISZERO PUSH2 0x959 JUMPI PUSH1 0x0 DUP2 PUSH1 0x0 SWAP1 SSTORE POP PUSH1 0x1 ADD PUSH2 0x941 JUMP JUMPDEST POP SWAP1 JUMP JUMPDEST PUSH1 0x0 PUSH2 0x970 PUSH2 0x96B DUP5 PUSH2 0xDA9 JUMP JUMPDEST PUSH2 0xD84 JUMP JUMPDEST SWAP1 POP DUP3 DUP2 MSTORE PUSH1 0x20 DUP2 ADD DUP5 DUP5 DUP5 ADD GT ISZERO PUSH2 0x98C JUMPI PUSH2 0x98B PUSH2 0x1055 JUMP JUMPDEST JUMPDEST PUSH2 0x997 DUP5 DUP3 DUP6 PUSH2 0xEA6 JUMP JUMPDEST POP SWAP4 SWAP3 POP POP POP JUMP JUMPDEST PUSH1 0x0 DUP2 CALLDATALOAD SWAP1 POP PUSH2 0x9AE DUP2 PUSH2 0x1165 JUMP JUMPDEST SWAP3 SWAP2 POP POP JUMP JUMPDEST PUSH1 0x0 DUP2 CALLDATALOAD SWAP1 POP PUSH2 0x9C3 DUP2 PUSH2 0x117C JUMP JUMPDEST SWAP3 SWAP2 POP POP JUMP JUMPDEST PUSH1 0x0 DUP2 CALLDATALOAD SWAP1 POP PUSH2 0x9D8 DUP2 PUSH2 0x1193 JUMP JUMPDEST SWAP3 SWAP2 POP POP JUMP JUMPDEST PUSH1 0x0 DUP3 PUSH1 0x1F DUP4 ADD SLT PUSH2 0x9F3 JUMPI PUSH2 0x9F2 PUSH2 0x1050 JUMP JUMPDEST JUMPDEST DUP2 CALLDATALOAD PUSH2 0xA03 DUP5 DUP3 PUSH1 0x20 DUP7 ADD PUSH2 0x95D JUMP JUMPDEST SWAP2 POP POP SWAP3 SWAP2 POP POP JUMP JUMPDEST PUSH1 0x0 DUP2 CALLDATALOAD SWAP1 POP PUSH2 0xA1B DUP2 PUSH2 0x11AA JUMP JUMPDEST SWAP3 SWAP2 POP POP JUMP JUMPDEST PUSH1 0x0 PUSH1 0x20 DUP3 DUP5 SUB SLT ISZERO PUSH2 0xA37 JUMPI PUSH2 0xA36 PUSH2 0x105F JUMP JUMPDEST JUMPDEST PUSH1 0x0 PUSH2 0xA45 DUP5 DUP3 DUP6 ADD PUSH2 0x99F JUMP JUMPDEST SWAP2 POP POP SWAP3 SWAP2 POP POP JUMP JUMPDEST PUSH1 0x0 PUSH1 0x20 DUP3 DUP5 SUB SLT ISZERO PUSH2 0xA64 JUMPI PUSH2 0xA63 PUSH2 0x105F JUMP JUMPDEST JUMPDEST PUSH1 0x0 PUSH2 0xA72 DUP5 DUP3 DUP6 ADD PUSH2 0x9B4 JUMP JUMPDEST SWAP2 POP POP SWAP3 SWAP2 POP POP JUMP JUMPDEST PUSH1 0x0 DUP1 PUSH1 0x0 DUP1 PUSH1 0x0 DUP1 PUSH1 0xC0 DUP8 DUP10 SUB SLT ISZERO PUSH2 0xA98 JUMPI PUSH2 0xA97 PUSH2 0x105F JUMP JUMPDEST JUMPDEST PUSH1 0x0 PUSH2 0xAA6 DUP10 DUP3 DUP11 ADD PUSH2 0x9B4 JUMP JUMPDEST SWAP7 POP POP PUSH1 0x20 DUP8 ADD CALLDATALOAD PUSH8 0xFFFFFFFFFFFFFFFF DUP2 GT ISZERO PUSH2 0xAC7 JUMPI PUSH2 0xAC6 PUSH2 0x105A JUMP JUMPDEST JUMPDEST PUSH2 0xAD3 DUP10 DUP3 DUP11 ADD PUSH2 0x9DE JUMP JUMPDEST SWAP6 POP POP PUSH1 0x40 DUP8 ADD CALLDATALOAD PUSH8 0xFFFFFFFFFFFFFFFF DUP2 GT ISZERO PUSH2 0xAF4 JUMPI PUSH2 0xAF3 PUSH2 0x105A JUMP JUMPDEST JUMPDEST PUSH2 0xB00 DUP10 DUP3 DUP11 ADD PUSH2 0x9DE JUMP JUMPDEST SWAP5 POP POP PUSH1 0x60 PUSH2 0xB11 DUP10 DUP3 DUP11 ADD PUSH2 0xA0C JUMP JUMPDEST SWAP4 POP POP PUSH1 0x80 PUSH2 0xB22 DUP10 DUP3 DUP11 ADD PUSH2 0xA0C JUMP JUMPDEST SWAP3 POP POP PUSH1 0xA0 PUSH2 0xB33 DUP10 DUP3 DUP11 ADD PUSH2 0x9C9 JUMP JUMPDEST SWAP2 POP POP SWAP3 SWAP6 POP SWAP3 SWAP6 POP SWAP3 SWAP6 JUMP JUMPDEST PUSH1 0x0 PUSH1 0x20 DUP3 DUP5 SUB SLT ISZERO PUSH2 0xB56 JUMPI PUSH2 0xB55 PUSH2 0x105F JUMP JUMPDEST JUMPDEST PUSH1 0x0 PUSH2 0xB64 DUP5 DUP3 DUP6 ADD PUSH2 0xA0C JUMP JUMPDEST SWAP2 POP POP SWAP3 SWAP2 POP POP JUMP JUMPDEST PUSH2 0xB76 DUP2 PUSH2 0xE5E JUMP JUMPDEST DUP3 MSTORE POP POP JUMP JUMPDEST PUSH2 0xB85 DUP2 PUSH2 0xE70 JUMP JUMPDEST DUP3 MSTORE POP POP JUMP JUMPDEST PUSH1 0x0 PUSH2 0xB96 DUP3 PUSH2 0xDDA JUMP JUMPDEST PUSH2 0xBA0 DUP2 DUP6 PUSH2 0xDE5 JUMP JUMPDEST SWAP4 POP PUSH2 0xBB0 DUP2 DUP6 PUSH1 0x20 DUP7 ADD PUSH2 0xEB5 JUMP JUMPDEST PUSH2 0xBB9 DUP2 PUSH2 0x1064 JUMP JUMPDEST DUP5 ADD SWAP2 POP POP SWAP3 SWAP2 POP POP JUMP JUMPDEST PUSH1 0x0 PUSH2 0xBD1 PUSH1 0x20 DUP4 PUSH2 0xDE5 JUMP JUMPDEST SWAP2 POP PUSH2 0xBDC DUP3 PUSH2 0x1075 JUMP JUMPDEST PUSH1 0x20 DUP3 ADD SWAP1 POP SWAP2 SWAP1 POP JUMP JUMPDEST PUSH1 0x0 PUSH2 0xBF4 PUSH1 0x17 DUP4 PUSH2 0xDE5 JUMP JUMPDEST SWAP2 POP PUSH2 0xBFF DUP3 PUSH2 0x109E JUMP JUMPDEST PUSH1 0x20 DUP3 ADD SWAP1 POP SWAP2 SWAP1 POP JUMP JUMPDEST PUSH1 0x0 PUSH2 0xC17 PUSH1 0x27 DUP4 PUSH2 0xDE5 JUMP JUMPDEST SWAP2 POP PUSH2 0xC22 DUP3 PUSH2 0x10C7 JUMP JUMPDEST PUSH1 0x40 DUP3 ADD SWAP1 POP SWAP2 SWAP1 POP JUMP JUMPDEST PUSH1 0x0 PUSH2 0xC3A PUSH1 0x23 DUP4 PUSH2 0xDE5 JUMP JUMPDEST SWAP2 POP PUSH2 0xC45 DUP3 PUSH2 0x1116 JUMP JUMPDEST PUSH1 0x40 DUP3 ADD SWAP1 POP SWAP2 SWAP1 POP JUMP JUMPDEST PUSH2 0xC59 DUP2 PUSH2 0xE9C JUMP JUMPDEST DUP3 MSTORE POP POP JUMP JUMPDEST PUSH1 0x0 PUSH1 0xC0 DUP3 ADD SWAP1 POP PUSH2 0xC74 PUSH1 0x0 DUP4 ADD DUP10 PUSH2 0xB6D JUMP JUMPDEST DUP2 DUP2 SUB PUSH1 0x20 DUP4 ADD MSTORE PUSH2 0xC86 DUP2 DUP9 PUSH2 0xB8B JUMP JUMPDEST SWAP1 POP DUP2 DUP2 SUB PUSH1 0x40 DUP4 ADD MSTORE PUSH2 0xC9A DUP2 DUP8 PUSH2 0xB8B JUMP JUMPDEST SWAP1 POP PUSH2 0xCA9 PUSH1 0x60 DUP4 ADD DUP7 PUSH2 0xC50 JUMP JUMPDEST PUSH2 0xCB6 PUSH1 0x80 DUP4 ADD DUP6 PUSH2 0xC50 JUMP JUMPDEST PUSH2 0xCC3 PUSH1 0xA0 DUP4 ADD DUP5 PUSH2 0xB7C JUMP JUMPDEST SWAP8 SWAP7 POP POP POP POP POP POP POP JUMP JUMPDEST PUSH1 0x0 PUSH1 0x20 DUP3 ADD SWAP1 POP PUSH2 0xCE3 PUSH1 0x0 DUP4 ADD DUP5 PUSH2 0xB7C JUMP JUMPDEST SWAP3 SWAP2 POP POP JUMP JUMPDEST PUSH1 0x0 PUSH1 0x20 DUP3 ADD SWAP1 POP DUP2 DUP2 SUB PUSH1 0x0 DUP4 ADD MSTORE PUSH2 0xD02 DUP2 PUSH2 0xBC4 JUMP JUMPDEST SWAP1 POP SWAP2 SWAP1 POP JUMP JUMPDEST PUSH1 0x0 PUSH1 0x20 DUP3 ADD SWAP1 POP DUP2 DUP2 SUB PUSH1 0x0 DUP4 ADD MSTORE PUSH2 0xD22 DUP2 PUSH2 0xBE7 JUMP JUMPDEST SWAP1 POP SWAP2 SWAP1 POP JUMP JUMPDEST PUSH1 0x0 PUSH1 0x20 DUP3 ADD SWAP1 POP DUP2 DUP2 SUB PUSH1 0x0 DUP4 ADD MSTORE PUSH2 0xD42 DUP2 PUSH2 0xC0A JUMP JUMPDEST SWAP1 POP SWAP2 SWAP1 POP JUMP JUMPDEST PUSH1 0x0 PUSH1 0x20 DUP3 ADD SWAP1 POP DUP2 DUP2 SUB PUSH1 0x0 DUP4 ADD MSTORE PUSH2 0xD62 DUP2 PUSH2 0xC2D JUMP JUMPDEST SWAP1 POP SWAP2 SWAP1 POP JUMP JUMPDEST PUSH1 0x0 PUSH1 0x20 DUP3 ADD SWAP1 POP PUSH2 0xD7E PUSH1 0x0 DUP4 ADD DUP5 PUSH2 0xC50 JUMP JUMPDEST SWAP3 SWAP2 POP POP JUMP JUMPDEST PUSH1 0x0 PUSH2 0xD8E PUSH2 0xD9F JUMP JUMPDEST SWAP1 POP PUSH2 0xD9A DUP3 DUP3 PUSH2 0xF1A JUMP JUMPDEST SWAP2 SWAP1 POP JUMP JUMPDEST PUSH1 0x0 PUSH1 0x40 MLOAD SWAP1 POP SWAP1 JUMP JUMPDEST PUSH1 0x0 PUSH8 0xFFFFFFFFFFFFFFFF DUP3 GT ISZERO PUSH2 0xDC4 JUMPI PUSH2 0xDC3 PUSH2 0x1021 JUMP JUMPDEST JUMPDEST PUSH2 0xDCD DUP3 PUSH2 0x1064 JUMP JUMPDEST SWAP1 POP PUSH1 0x20 DUP2 ADD SWAP1 POP SWAP2 SWAP1 POP JUMP JUMPDEST PUSH1 0x0 DUP2 MLOAD SWAP1 POP SWAP2 SWAP1 POP JUMP JUMPDEST PUSH1 0x0 DUP3 DUP3 MSTORE PUSH1 0x20 DUP3 ADD SWAP1 POP SWAP3 SWAP2 POP POP JUMP JUMPDEST PUSH1 0x0 PUSH2 0xE01 DUP3 PUSH2 0xE9C JUMP JUMPDEST SWAP2 POP PUSH2 0xE0C DUP4 PUSH2 0xE9C JUMP JUMPDEST SWAP3 POP DUP3 PUSH32 0xFFFFFFFFFFFFFFFFFFFFFFFFFFFFFFFFFFFFFFFFFFFFFFFFFFFFFFFFFFFFFFFF SUB DUP3 GT ISZERO PUSH2 0xE41 JUMPI PUSH2 0xE40 PUSH2 0xF94 JUMP JUMPDEST JUMPDEST DUP3 DUP3 ADD SWAP1 POP SWAP3 SWAP2 POP POP JUMP JUMPDEST PUSH1 0x0 PUSH2 0xE57 DUP3 PUSH2 0xE7C JUMP JUMPDEST SWAP1 POP SWAP2 SWAP1 POP JUMP JUMPDEST PUSH1 0x0 PUSH2 0xE69 DUP3 PUSH2 0xE7C JUMP JUMPDEST SWAP1 POP SWAP2 SWAP1 POP JUMP JUMPDEST PUSH1 0x0 DUP2 ISZERO ISZERO SWAP1 POP SWAP2 SWAP1 POP JUMP JUMPDEST PUSH1 0x0 PUSH20 0xFFFFFFFFFFFFFFFFFFFFFFFFFFFFFFFFFFFFFFFF DUP3 AND SWAP1 POP SWAP2 SWAP1 POP JUMP JUMPDEST PUSH1 0x0 DUP2 SWAP1 POP SWAP2 SWAP1 POP JUMP JUMPDEST DUP3 DUP2 DUP4 CALLDATACOPY PUSH1 0x0 DUP4 DUP4 ADD MSTORE POP POP POP JUMP JUMPDEST PUSH1 0x0 JUMPDEST DUP4 DUP2 LT ISZERO PUSH2 0xED3 JUMPI DUP1 DUP3 ADD MLOAD DUP2 DUP5 ADD MSTORE PUSH1 0x20 DUP2 ADD SWAP1 POP PUSH2 0xEB8 JUMP JUMPDEST DUP4 DUP2 GT ISZERO PUSH2 0xEE2 JUMPI PUSH1 0x0 DUP5 DUP5 ADD MSTORE JUMPDEST POP POP POP POP JUMP JUMPDEST PUSH1 0x0 PUSH1 0x2 DUP3 DIV SWAP1 POP PUSH1 0x1 DUP3 AND DUP1 PUSH2 0xF00 JUMPI PUSH1 0x7F DUP3 AND SWAP2 POP JUMPDEST PUSH1 0x20 DUP3 LT DUP2 EQ ISZERO PUSH2 0xF14 JUMPI PUSH2 0xF13 PUSH2 0xFC3 JUMP JUMPDEST JUMPDEST POP SWAP2 SWAP1 POP JUMP JUMPDEST PUSH2 0xF23 DUP3 PUSH2 0x1064 JUMP JUMPDEST DUP2 ADD DUP2 DUP2 LT PUSH8 0xFFFFFFFFFFFFFFFF DUP3 GT OR ISZERO PUSH2 0xF42 JUMPI PUSH2 0xF41 PUSH2 0x1021 JUMP JUMPDEST JUMPDEST DUP1 PUSH1 0x40 MSTORE POP POP POP JUMP JUMPDEST PUSH1 0x0 PUSH2 0xF56 DUP3 PUSH2 0xE9C JUMP JUMPDEST SWAP2 POP PUSH32 0xFFFFFFFFFFFFFFFFFFFFFFFFFFFFFFFFFFFFFFFFFFFFFFFFFFFFFFFFFFFFFFFF DUP3 EQ ISZERO PUSH2 0xF89 JUMPI PUSH2 0xF88 PUSH2 0xF94 JUMP JUMPDEST JUMPDEST PUSH1 0x1 DUP3 ADD SWAP1 POP SWAP2 SWAP1 POP JUMP JUMPDEST PUSH32 0x4E487B7100000000000000000000000000000000000000000000000000000000 PUSH1 0x0 MSTORE PUSH1 0x11 PUSH1 0x4 MSTORE PUSH1 0x24 PUSH1 0x0 REVERT JUMPDEST PUSH32 0x4E487B7100000000000000000000000000000000000000000000000000000000 PUSH1 0x0 MSTORE PUSH1 0x22 PUSH1 0x4 MSTORE PUSH1 0x24 PUSH1 0x0 REVERT JUMPDEST PUSH32 0x4E487B7100000000000000000000000000000000000000000000000000000000 PUSH1 0x0 MSTORE PUSH1 0x32 PUSH1 0x4 MSTORE PUSH1 0x24 PUSH1 0x0 REVERT JUMPDEST PUSH32 0x4E487B7100000000000000000000000000000000000000000000000000000000 PUSH1 0x0 MSTORE PUSH1 0x41 PUSH1 0x4 MSTORE PUSH1 0x24 PUSH1 0x0 REVERT JUMPDEST PUSH1 0x0 DUP1 REVERT JUMPDEST PUSH1 0x0 DUP1 REVERT JUMPDEST PUSH1 0x0 DUP1 REVERT JUMPDEST PUSH1 0x0 DUP1 REVERT JUMPDEST PUSH1 0x0 PUSH1 0x1F NOT PUSH1 0x1F DUP4 ADD AND SWAP1 POP SWAP2 SWAP1 POP JUMP JUMPDEST PUSH32 0x796F7520617265206E6F742061626C6520746F20776974686472617720796574 PUSH1 0x0 DUP3 ADD MSTORE POP JUMP JUMPDEST PUSH32 0x596F752063616E6E6F7420776974686472617720796574000000000000000000 PUSH1 0x0 DUP3 ADD MSTORE POP JUMP JUMPDEST PUSH32 0x596F75206D757374206265207468652062656E696669636961727920746F2077 PUSH1 0x0 DUP3 ADD MSTORE PUSH32 0x6974686472617700000000000000000000000000000000000000000000000000 PUSH1 0x20 DUP3 ADD MSTORE POP JUMP JUMPDEST PUSH32 0x6F6E6C7920746865206F776E65722063616E206164642062656E696669636972 PUSH1 0x0 DUP3 ADD MSTORE PUSH32 0x6965730000000000000000000000000000000000000000000000000000000000 PUSH1 0x20 DUP3 ADD MSTORE POP JUMP JUMPDEST PUSH2 0x116E DUP2 PUSH2 0xE4C JUMP JUMPDEST DUP2 EQ PUSH2 0x1179 JUMPI PUSH1 0x0 DUP1 REVERT JUMPDEST POP JUMP JUMPDEST PUSH2 0x1185 DUP2 PUSH2 0xE5E JUMP JUMPDEST DUP2 EQ PUSH2 0x1190 JUMPI PUSH1 0x0 DUP1 REVERT JUMPDEST POP JUMP JUMPDEST PUSH2 0x119C DUP2 PUSH2 0xE70 JUMP JUMPDEST DUP2 EQ PUSH2 0x11A7 JUMPI PUSH1 0x0 DUP1 REVERT JUMPDEST POP JUMP JUMPDEST PUSH2 0x11B3 DUP2 PUSH2 0xE9C JUMP JUMPDEST DUP2 EQ PUSH2 0x11BE JUMPI PUSH1 0x0 DUP1 REVERT JUMPDEST POP JUMP INVALID LOG2 PUSH5 0x6970667358 0x22 SLT KECCAK256 0xC5 NOT XOR POP 0xD 0xB2 DUP6 0x49 PUSH3 0x9231E8 JUMPI SELFBALANCE DUP4 COINBASE 0x23 AND REVERT 0xF RETURNDATACOPY ADD SGT DUP5 0xAC 0x5E 0xF6 0xF7 0xDB ISZERO 0x4B 0xAC PUSH5 0x736F6C6343 STOP ADDMOD SMOD STOP CALLER "
				},
				"gasEstimates": {
					"creation": {
						"codeDepositCost": "919800",
						"executionCost": "25221",
						"totalCost": "945021"
					},
					"external": {
						"addBenificiary(address,string,string,uint256,uint256,bool)": "infinite",
						"availableToWithdraw(address)": "infinite",
						"balanceOf()": "383",
						"benificiaries(uint256)": "infinite",
						"deposit(address)": "infinite",
						"withdraw(address)": "infinite"
					},
					"internal": {
						"addToBeneficiaryBalance(address)": "infinite",
						"getIndex(address)": "infinite"
					}
				},
				"methodIdentifiers": {
					"addBenificiary(address,string,string,uint256,uint256,bool)": "303edf18",
					"availableToWithdraw(address)": "a25db8ce",
					"balanceOf()": "722713f7",
					"benificiaries(uint256)": "5fded477",
					"deposit(address)": "f340fa01",
					"withdraw(address)": "51cff8d9"
				}
			},
			"storageLayout": {
				"storage": [
					{
						"astId": 3,
						"contract": "contracts/CdAccount.sol:Savings",
						"label": "owner",
						"offset": 0,
						"slot": "0",
						"type": "t_address"
					},
					{
						"astId": 29,
						"contract": "contracts/CdAccount.sol:Savings",
						"label": "benificiaries",
						"offset": 0,
						"slot": "1",
						"type": "t_array(t_struct(Benificiary)25_storage)dyn_storage"
					}
				],
				"types": {
					"t_address": {
						"encoding": "inplace",
						"label": "address",
						"numberOfBytes": "20"
					},
					"t_address_payable": {
						"encoding": "inplace",
						"label": "address payable",
						"numberOfBytes": "20"
					},
					"t_array(t_struct(Benificiary)25_storage)dyn_storage": {
						"base": "t_struct(Benificiary)25_storage",
						"encoding": "dynamic_array",
						"label": "struct Savings.Benificiary[]",
						"numberOfBytes": "32"
					},
					"t_bool": {
						"encoding": "inplace",
						"label": "bool",
						"numberOfBytes": "1"
					},
					"t_string_storage": {
						"encoding": "bytes",
						"label": "string",
						"numberOfBytes": "32"
					},
					"t_struct(Benificiary)25_storage": {
						"encoding": "inplace",
						"label": "struct Savings.Benificiary",
						"members": [
							{
								"astId": 14,
								"contract": "contracts/CdAccount.sol:Savings",
								"label": "walletAdress",
								"offset": 0,
								"slot": "0",
								"type": "t_address_payable"
							},
							{
								"astId": 16,
								"contract": "contracts/CdAccount.sol:Savings",
								"label": "firstName",
								"offset": 0,
								"slot": "1",
								"type": "t_string_storage"
							},
							{
								"astId": 18,
								"contract": "contracts/CdAccount.sol:Savings",
								"label": "lastName",
								"offset": 0,
								"slot": "2",
								"type": "t_string_storage"
							},
							{
								"astId": 20,
								"contract": "contracts/CdAccount.sol:Savings",
								"label": "releaseTime",
								"offset": 0,
								"slot": "3",
								"type": "t_uint256"
							},
							{
								"astId": 22,
								"contract": "contracts/CdAccount.sol:Savings",
								"label": "amount",
								"offset": 0,
								"slot": "4",
								"type": "t_uint256"
							},
							{
								"astId": 24,
								"contract": "contracts/CdAccount.sol:Savings",
								"label": "canWithdraw",
								"offset": 0,
								"slot": "5",
								"type": "t_bool"
							}
						],
						"numberOfBytes": "192"
					},
					"t_uint256": {
						"encoding": "inplace",
						"label": "uint256",
						"numberOfBytes": "32"
					}
				}
			},
			"userdoc": {
				"kind": "user",
				"methods": {},
				"version": 1
			}
		}
	}
}